:1000000080312C288E1708007E1480314E01961AFC
:100010008C1E0E288A313A2280312A280B1F2A286A
:100020009B1A911E17288831602080312A28191ABE
:100030000F1E212842016B088A006A080A008031DD
:100040002A28991A8F1E2A28420169088A006808FE
:100050000A0080317E10090080312E282030840073
:100060008930850065308600003087000A3088318D
:10007000A62080310430840089308500E33086007A
:100080000030870008308831A6208031F001F1016E
:10009000F201F301F401F501203084000030850005
:1000A0002E308831A0208031A030840000308500BF
:1000B00043308831A02080314230840001308500F7
:1000C00020308831A0207E1040018731D22F2708B0
:1000D000A3002608A2002508A1002408A0004001D2
:1000E0003D084201A90040013C084201A80028083F
:1000F0004001CE00420129084001CF00D001D101CA
:10010000D201D301D401D5013D084201AB00400129
:100110003C084201AA002A084001D60042012B08EF
:100120004001D700D801D901DA01DB01DC01DD0192
:100130008E31AC2680314E084201B40040014F0898
:100140004201B500400150084201B600400151088B
:100150004201B700400152084201B8004001530873
:100160004201B900400154084201BA00400155085B
:100170004201BB0034084001CE0042013508400175
:10018000CF00420136084001D0004201370840014B
:10019000D100420138084001D20042013908400133
:1001A000D30042013A084001D40042013B0840011B
:1001B000D500410168084201A900410167084201D8
:1001C000A80028084001D600420129084001D700B4
:1001D000D801D901DA01DB01DC01DD018E31AC2669
:1001E00080314E30860000308700403F4201AA0037
:1001F000413FAB00423FAC00433FAD00443FAE0047
:10020000453FAF00463FB000473FB1000A304201D2
:10021000B136B00CAF0CAE0CAD0CAC0CAB0CAA0CE8
:10022000890B072942012D084101A70042012C0832
:100230004101A60042012B084101A50042012A0804
:100240004101A400200824074201A800410121081F
:10025000253D4201A90041012208263D4201AA0094
:1002600041012308273D4201AB002B084001D1008A
:1002700042012A084001D000420129084001CF0074
:10028000420128084001CE006A084201AC00AD01DD
:10029000AE01AF012F084001D50042012E084001F8
:1002A000D40042012D084001D30042012C08400136
:1002B000D2008B31A82380314E084201B0004001AA
:1002C0004F084201B100400150084201B200400114
:1002D00051084201B300410165084001CE004101CF
:1002E00066084001CF00D001D10141012B08400137
:1002F000D50041012A084001D400410129084001EC
:10030000D300410128084001D2008B31A82380315D
:100310004E084201B00740014F084201B13D400183
:1003200050084201B23D400151084201B33D103036
:10033000B336B20CB10CB00C890B982933084101CB
:10034000AB00420132084101AA00420131084101DB
:10035000A900420130084101A80040016708DA0005
:100360006808DB00DC01DD0141012B084001E100F0
:1003700041012A084001E000410129084001DF0055
:10038000410128084001DE008D31E22580315B0803
:10039000B3005A08B20032086D07B80033086E3D4A
:1003A000B90041012E084001D20041012F0840014F
:1003B000D300D401D50141012E084001CE004101F6
:1003C0002F084001CF00D001D1018B31A82380310B
:1003D00051084201BF00400150084201BE004001E7
:1003E0004F084201BD0040014E084201BC004001DF
:1003F0006708DA006808DB00DC01DD0141016908FB
:100400004001D20041016A084001D300D401D50166
:1004100042013F084001D10042013E084001D000A6
:1004200042013D084001CF0042013C084001CE009E
:100430008B31A82380314E084201A80040014F08AB
:100440004201A900400150084201AA0040015108A0
:100450004201AB000A30AB36AA0CA90CA80C890BE0
:100460002B2A2B084001E10042012A084001E0004C
:10047000420129084001DF00420128084001DE0056
:100480008D31E2255B08B5005A08B40034083807FE
:10049000B6003508393DB7000800683400346A34C6
:1004A00000346C3400346F340034713400347334ED
:1004B000003476340034783400347B3400347D34B6
:1004C000003480340034833400348534003488347C
:1004D00000348B3400348E3400349134003494343E
:1004E0000034973400349B3400349E340034A134FB
:1004F0000034A5340034A8340034AC340034B034B3
:100500000034B3340034B7340034BB340034BF3467
:100510000034C3340034C8340034CC340034D03414
:100520000034D5340034D9340034DE340034E334BC
:100530000034E8340034EC340034F1340034F7345F
:100540000034FC34003401340134073401340C34F9
:10055000013412340134173401341D34013423348E
:100560000134293401342F340134363401343C341D
:1005700001344234013449340134503401345634A6
:1005800001345D340134643401346B340134723429
:1005900001347934013481340134883401349034A5
:1005A0000134973401349F340134A7340134AF341B
:1005B0000134B7340134BF340134C7340134D0348A
:1005C0000134D8340134E0340134E9340134F134F5
:1005D0000134FA340134023402340B34023414345A
:1005E00002341C340234253402342E3402343734BD
:1005F00002343F3402344834023451340234593422
:100600000234623402346B340234743402347C3485
:100610000234853402348E340234963402349F34EA
:100620000234A7340234B0340234B8340234C03453
:100630000234C8340234D1340234D9340234E034C0
:100640000234E8340234F0340234F8340234FF3433
:100650000234073403340E340334153403341D34A8
:100660000334243403342A34033431340334383427
:1006700003343E340334453403344B3403345134AF
:100680000334573403345D3403346334033468343F
:1006900003346E34033473340334783403347D34D8
:1006A000033482340334873403348C340334903479
:1006B000033495340334993403349D340334A13422
:1006C0000334A5340334A9340334AD340334B034D3
:1006D0000334B4340334B7340334BA340334BD348C
:1006E0000334C0340334C3340334C6340334C8344D
:1006F0000334CB340334CD340334D0340334D23414
:100700000334D4340334D6340334D8340334DA34E1
:100710000334DC340334DE340334E0340334E134B2
:100720000334E3340334E4340334E6340334E73489
:10073000033440012B03031D742C2A08031D742C61
:100740000830A800742C8831AC208331003A03199A
:1007500008000F3089314321AB01AB0AA801A80A78
:1007600008008831AC208331003A03190800893130
:1007700088218331013A031DC02B0230A8000800F4
:1007800008304001A80008008831AC208331003ACD
:10079000031908008B313C238331553A031DC02BCC
:1007A0000330A80008008831AC208331003A0319D7
:1007B00008008B313C2383314101B80038088A316D
:1007C00023228331003A0319C02BCE01CE0A410106
:1007D00038088E31462683314101C2004203031D91
:1007E000FE2B02304001CE00410138088E314626F2
:1007F0004101C30004304001A80008008831852071
:1008000006304001A80008008831AC208331003A4E
:10081000031908008B313C238331E2002708B93EDD
:100820008600870162088100410143084001E2001F
:10083000E301E21BE3030130E4006408A707630857
:10084000803A803C031D262C62082702031C080006
:100850004001A7010530A80008008831AC20833191
:10086000003A031908008B313C2383314101C10058
:1008700038084001CE00B930CF00410143088C3127
:100880000624833141014106031DC02B073040017E
:10089000A8000800410138088F3113278331073041
:1008A0004001A80042016D088A006C080A008431EA
:1008B00088318F208331A701AB010030CE00CF00FB
:1008C0000D30D0000030D100B8308931F6218331AD
:1008D00042019E1C702C88318A204001A80108002A
:1008E00009304001A80008002808E200E30163087D
:1008F000003A03197C2C9C2C6208003A0319A32BA4
:10090000013A0319B12B033A0319C42B013A031915
:10091000D32B073A0319042C013A03192D2C033A5F
:1009200003194A2C013A0319522C0F3A0319582C77
:10093000013A0319682C9C2C080021308B311A23B2
:1009400084314201A0003C2D21088D31852508000D
:1009500021084001B100080000308D3185251913B0
:10096000080021084001EC00080021084001DB00DC
:10097000DC01420122084001DD00DE015D08DE00ED
:10098000DD015B085D044101E90040015C085E0493
:100990004101EA00080021084001DB00DC014201BE
:1009A00022084001DD00DE015D08DE00DD015B089C
:1009B0005D044101E70040015C085E044101E8007C
:1009C000080021084001DB00DC014201220840014F
:1009D000DD00DE015D08DE00DD015B085D04E7008F
:1009E0005C085E04E800080021084001DB00DC012F
:1009F000420122084001DD00DE015D08DE00DD016C
:100A00005B085D04E5005C085E04E6000800210860
:100A10004001EB008B315F23080021084001EA0010
:100A20006A08DB00DC01DB35DC0DDB09DC09DB0AF5
:100A30000319DC0A5B084101E50040015C08410143
:100A4000E600080021084001B0000800210840012C
:100A5000DB00DC01420122084001DD00DE015D080F
:100A6000DE00DD015B085D044101E30040015C083C
:100A70005E044101E40008002008003A0319A42C98
:100A8000013A0319A82C033A0319AC2C123A0319A2
:100A9000B12C013A0319B52C033A0319CB2C013AB6
:100AA0000319E12C073A0319F42C013A0319072D15
:100AB000033A03190D2D013A0319222D0F3A031998
:100AC000262D383A0319922D013A0319922D033A33
:100AD0000319922D013A0319922D073A0319922D09
:100AE000013A0319922D033A0319922D013A031981
:100AF000922D0F3A0319922D013A0319922D033AC0
:100B00000319922D013A0319922D073A0319922DD8
:100B1000013A0319922D033A0319922D013A031950
:100B2000922D922D080040013F084101AD00400187
:100B30003E084101AC000C308A31522285317708E1
:100B40004001BF007608BE003B3089313621853137
:100B50000D30890BA92D0000013040016602A7303D
:100B600003196502031CB82DA630E5000130E6002C
:100B700041012D0840016602031DC22D41012C08D0
:100B8000400165020318D52D3F086602031DCA2DDA
:100B90003E0865020318D52D2F03031DD52D023005
:100BA000AE0000308D3129258531410136083704EA
:100BB00003190C2E400141084101B10040014008D9
:100BC0004101B00002308A3152228531770840015C
:100BD000C1007608C0003B308931362185310D30A7
:100BE000890BF02D000001304101310274300319EE
:100BF000300203180800013040014102743003192B
:100C00004002031808002F03031D0800AD01AD0AC0
:100C100000308D312925080075084001A1007408B5
:100C2000A00014308A31522285317708F500760809
:100C3000F4003B30893136218531003040012102FA
:100C40000A300319200203182F2E003075020A30D3
:100C50000319740203182F2E0230AC000800033071
:100C60002102F63003192002031C0800033075022C
:100C7000F63003197402031C08000330AC00003086
:100C80008D31292508000034013401344D340034FD
:100C90000134013401344C34003402340134013461
:100CA0004B3400341034013401344A3400341134EC
:100CB00001340234E1340034123401340234DF34BC
:100CC0000034133401340234DD340034143401347C
:100CD0000234DB3400341534013401344934003437
:100CE00016340134013448340034173401340134EB
:100CF00047340034183401340234D93400342034F9
:100D00000034013446340034213400340134453495
:100D100000342234003401344434003423340034A9
:100D20000134433400342434003401344234003478
:100D3000253400340234D7340034263400340234ED
:100D4000D5340034273400340234D334003428340A
:100D500000340234D1340034293400340234CF3426
:100D600000342A3400340234CD3400342B340034BF
:100D70000234CB3400342C3400340234C93400340F
:100D80002D3400340234C73400342E34003402349D
:100D9000C53400342F34003408345A3401344E0141
:100DA000101CDE2E40012F03031DDE2E0330AE008B
:100DB00000308D31852586314E01101041016408C7
:100DC0003702031DE52E63083602031C0800B60136
:100DD000B7017C018F1DFB2E40012F03031DFB2E4D
:100DE0007C01AB0145018C017C01A5010330A5000C
:100DF000A5010830AB008C31DA2486314F08EE00B3
:100E00004E08ED006E08803AE30080306302031D57
:100E10000B2F73306D02031C152F73304001ED0052
:100E20000030EE00AC01AC0A4E2F40013B083F02FF
:100E3000031D1C2F3A083E02031C2C2F00303B02DE
:100E40000A3003193A0203182C2F3A083E02BC005C
:100E50003B083F3BBD00302F3F08BD003E08BC00B3
:100E60003D08E4003C08E300E436E30C630841017C
:100E7000AE00400164084101AF0080316720863137
:100E80003708803AE30080306302031D492F6C0865
:100E90003602031C4E2F4001AE01AE0A8F31892766
:100EA0000800CF004F08D000D01C582F0130592F18
:100EB0000030CE00501C5E2F01305F2F00304E06F8
:100EC0000319652F40015017672F40015013501D23
:100ED0006B2F01306C2F0030CE00501F712F01306E
:100EE000722F00304E060319782F400150177A2FC9
:100EF00040015013501E7E2F01307F2F0030CE0056
:100F0000501F842F0130852F00304E0603198B2F80
:100F1000400150178D2F40015013D01D912F0130EB
:100F2000922F0030CE00D01C972F0130982F003028
:100F30004E0603199E2F4001D017A02F4001D01359
:100F4000501EA42F0130A52F0030CE00D01FAA2F95
:100F50000130AB2F00304E060319B12F4001D017DE
:100F6000B32F4001D013D01EB72F0130B82F00305F
:100F7000CE00D01FBD2F0130BE2F00304E0603190A
:100F8000C42F4001D017C62F4001D0130310D01F2B
:100F90000314031CCE2F4001D017D02F4001D013D3
:100FA000500808008C31362487318B315F2387311C
:100FB000191729304201C1009630C0007F30890BDB
:100FC000DF2FC00BDF2FC10BDF2F8B170B17053067
:100FD0004201C1000F30C000F130890BED2FC00B72
:100FE000ED2FC10BED2F01308D31852587318331F8
:100FF000992387318631CF268731F72F22080800C1
:1010BC0008000800911208008E1708008931E02101
:1010CC0008001D121D16080044010E1408004401EE
:1010DC000E10080045018E13080044010E14080080
:1010EC0044010E10080045018E1308008430520193
:1010FC008C00080000004001A901AA01080042016F
:10110C001D124E019912080042011D164E0199162E
:10111C00080000004001A901AA01080071084B0158
:10112C009D0070089C000800883052018E0002302F
:10113C008F000800640080010131890BA128003464
:10114C00FE0012001E00FE0BA728003440012308ED
:10115C000319B22801300800003008004F084B0179
:10116C009D0040014E084B019C000800F0304101ED
:10117C009E009B019C0101309D0008004F0842011C
:10118C00E30040014E084201E20008004F08420112
:10119C00E70040014E084201E60008004F084201FA
:1011AC00E50040014E084201E40008004F084201EE
:1011BC00E90040014E084201E80008004F084201D6
:1011CC00EB0040014E084201EA0008004F084101C3
:1011DC00EC0040014E084101EB0008002A304001B0
:1011EC00CE000930CF008831EC2008004F01960169
:1011FC009701980199019A019B010800E834033486
:10120C002E34FF340A340334A534013490305301A6
:10121C0094000230950003309600053097000800CA
:10122C00603051018D008F019101063093009001C7
:10123C00920108002C3400349E3402340A34693490
:10124C000134AF34553400340130F60076084001D7
:10125C00A90769082902031C0800883180200800AE
:10126C00F7007708F600F60DF60D41011D0876061D
:10127C00033976069D001D140800D0005008E900C3
:10128C000030CE00CF008831B42000004001AA010C
:10129C00AA0A080043304001D0008630D1009D30AE
:1012AC00D2000430D3001C308A319D2208000D304E
:1012BC00450190008F01910127308D008C014E016A
:1012CC009010B03045018E0008000D3045019000A3
:1012DC008F01910127308D008C014E019010B030A0
:1012EC0045018E00080044010E1D83290E1077085D
:1012FC008D0076088C000E14080077088D00760897
:10130C008C0008008B313C238931003A031D952950
:10131C008731FE278931891C95290130080000305E
:10132C000800AF010E30B000B101B201B3010230C0
:10133C00B4000230B500B601B7018030AE00080031
:10134C007C01A5011A30A6000530A700A801A9014F
:10135C000130AA000830AB00AC01AD018030A40014
:10136C00080088307C0191001730920017309300F0
:10137C000E3094001B3095000230960097019801B6
:10138C00903099000330900008007C019B010D30D7
:10139C009C000D309D000D309E000D309F000230E2
:1013AC00A000A101A201A30183309A004E01911269
:1013BC009B16080073084A3E8600013087004201E4
:1013CC00190881000130F6007608F3070830730223
:1013DC000318F3010130F60076084001A30708005A
:1013EC00D4005408D3000130D0020030D13B500A55
:1013FC000319510A031908005308860087014E0887
:10140C0081000130D2005208D307F92944010E1D86
:10141C001A2A0E1040014F0844018D0040014E085D
:10142C0044018C000E14080040014F0844018D004B
:10143C0040014E0844018C0008004001D500CE014B
:10144C00CE0A55088E3146268A31023A031D302ABF
:10145C000030080055083F39873151278A3155062D
:10146C00031D2E2A013008008C1271084B019D00BF
:10147C0070089C0041016B086C0403194A2A6C0823
:10148C008A006B080A008A318531932501304101AD
:10149C00B6070030B73D0800F9007908F800F80DE0
:1014AC00F80D41011D087806033978069D001D14BE
:1014BC000D30890B5F2A000041019D149D18642A90
:1014CC001C08F7001B08F600080056304B019F0063
:1014DC00FF309D0083309C001D08F1001C08F000BB
:1014EC004E018C1296165F304001CE000830CF00B2
:1014FC008831EC2090304B019E0008008030440174
:10150C008F000D30900003309100FF308D00D830EB
:10151C008C004E01101044010D084101B50044012E
:10152C000C084101B400353044018E000800D40091
:10153C0051084101EE00400150084101ED0040010D
:10154C005408EF0053084201ED00400152084201DB
:10155C00EC0088318F208A3188318A208A31883199
:10156C00F42008000830400124020318D32A25086F
:10157C00523E860001308700010842019A0001307A
:10158C00F60076084001A507083025020318A501CE
:10159C000130F6007608A40708004E011912080065
:1015AC00CF0024080319D72A4E01191AE22A400148
:1015BC004F0842019A00F52A191240012608523EA2
:1015CC008600013087004F0881000130CE004E08A4
:1015DC00A607083026020318A6010130A4024E010A
:1015EC00191608004001D900DA0159085A020318EB
:1015FC000F2B5A085707D800580886008701010896
:10160C008A31D6228A3101304001D8005808DA07D5
:10161C00FB2A5608CE005708CF0059088C310624F7
:10162C008A318A31D62208004001D900410138089C
:10163C003F394001DA005908CE000130CF00B930F3
:10164C00D0000030D1000830D2000030D3008B31F4
:10165C0082238B310030CE00CF000D30D000003013
:10166C00D100B8308931F6215A0808002308031933
:10167C003C2B7208423E8600013087000108A20014
:10168C0072084A3E8600013087000108CF00013005
:10169C00CE004E08F207083072020318F2014E0118
:1016AC00991201304001A3024E01991640014F08D6
:1016BC00080000308D3185258B31530194177C0146
:1016CC0097154E018E1052010F0840016B06E03940
:1016DC006B0652018F003530890B722B000088315C
:1016EC0094204E018C1291120E108E104101B601F5
:1016FC00B7014001B10108005108D8005008D700CB
:10170C004F08D6004E08D5000130D2020030D33B32
:10171C00520A0319530A031908005708860058087F
:10172C0087000108D4000130D7070030D83D550898
:10173C00860056088700540881000130D507003018
:10174C00D63D8A2B0030D9000030D8000030D700AD
:10175C000030D6004E1CBA2B5208D6075308D73D82
:10176C005408D83D5508D93D0130D235D30DD40D90
:10177C00D50D890BBB2B0130D136D00CCF0CCE0C38
:10178C00890BC22B510850044F044E04031DB02B7F
:10179C005908D1005808D0005708CF005608CE0081
:1017AC0008004001980199019A01373092003030BD
:1017BC009300BF3094001F307E01CE001030C30068
:1017CC000730B800C401B901CF01BA01C501D0017D
:1017DC001F30BB00C6013F30D1003F30BC00C701F9
:1017EC003F30D20017307D01BB000F307E019F00CF
:1017FC000230A6000130A7000D307D01CB0008009F
:10180C004001D2004E08D000D1015008D40051083C
:10181C00D500D301520853020318322C4F0886000E
:10182C00870101085407D40055080318550AD50040
:10183C000130D0005008CF07013055020030031999
:10184C005402031C2D2CFF30D4020030D53B013048
:10185C00D0005008D307102CD409D509540808001F
:10186C008831FC208C318B31D7238C318931162176
:10187C008C3189310C218C3188317C208C3189312F
:10188C00CB218C3189316B218C318A316B228C319B
:10189C008931B7218C31893197218C318831BC2029
:1018AC008C318931A6218C3188319A208C318A3146
:1018BC0084228C318C3199248C318931502108004F
:1018CC007308423E86000130870081011D1D792C72
:1018DC007308423E860001308700811467088A0035
:1018EC0066080A008C3142019D1C872C7308423E0D
:1018FC00860001308700011565088A0064080A001B
:10190C008C317308423E86000130870001080319B0
:10191C00962C420163088A0062080A008C31080088
:10192C008931E02108004E01991266304001CE0049
:10193C000C30CF008831DC208C314E011912B830BC
:10194C004001CE000A30CF008831E4208C310830C1
:10195C009F0090309D0024309E00A0309B000130F1
:10196C009C005E304001CE000830CF008831CC2086
:10197C008C3167304001CE000830CF008831D42044
:10198C008C3164304001CE000830CF008831C42047
:10199C004001A201A601A5010830A400F301F20147
:1019AC00A3014E01991608004001D401D501D701BD
:1019BC00D8012108D5002008D40075082102031D88
:1019CC00E92C740820020318EF2C7508D500740854
:1019DC00D4007D30D7000030D800D6015808803AAA
:1019EC00D0007F305002031DFD2CD9305702031C50
:1019FC00182D40015608D000D101D035D10D4D30F5
:101A0C00500784000230513D80388500003FD200E1
:101A1C00013FD30055085302031D162D54085202E2
:101A2C00031C1E2D40015808CF005708CE0008009B
:101A3C005708FF3ED700FF30583DD8000130D0008A
:101A4C005008D607F42CFA00883170208D317C01B7
:101A5C00911119129913803044018F000D309000B0
:101A6C007C01A41391149110003200320032003228
:101A7C007C019B149B104001AF017A0803190800EC
:101A8C00AE01AD01AC0194177C01901791111111AD
:101A9C001115111191179B111B111B151B114001D5
:101AAC003103031D6A2D7C01911519169917C0304D
:101ABC0044018F000B30900089315D218D318831CC
:101ACC0062208D317C01A41788316D208D3140014D
:101ADC003008F800F9017809F6007909F700893126
:101AEC0079218D314E01101088316A2040013F0858
:101AFC00BB003E08BA00AF01AF0A941308004001C6
:101B0C00D200883179208D317C01911119129913F1
:101B1C00803044018F000D3090007C01A41391148F
:101B2C00911000320032003200327C019B149B1069
:101B3C004001AF01520803190800AE01AD01AC0120
:101B4C0094177C0190179111111111151111911706
:101B5C009B111B111B151B1140013103031DC72DBC
:101B6C007C01911519169917C03044018F000B3068
:101B7C00900089316B218D31803102208D317C01B7
:101B8C00A417883176208D3140013008D000D10166
:101B9C005009CE005109CF008A310C228D314E01F3
:101BAC0010108831732040013F08BB003E08BA007A
:101BBC00AF01AF0A9413080000304201A3000030BB
:101BCC00A2000030A1000030A00040015D085C04C0
:101BDC005B045A040319352E4201A401A40A4001E6
:101BEC00DD1B052E0130DA35DB0DDC0DDD0D890B2F
:101BFC00F92D0130E20062084201A407F52D0130F5
:101C0C004201A035A10DA20DA30D890B062E40019A
:101C1C005D086102031D1C2E5C086002031D1C2E56
:101C2C005B085F02031D1C2E5A085E02031C282E43
:101C3C005A08DE025B08DF3B5C08E03B5D08E13BD9
:101C4C004201201401304001DD36DC0CDB0CDA0CD7
:101C5C00890B292E01304201A402031D052E4201DD
:101C6C0023084001DD00420122084001DC00420152
:101C7C0021084001DB00420120084001DA00080085
:101C8C004001D10041016E084001D40041016D08B2
:101C9C004001D3003F30CF004F08D105D2016F086F
:101CAC0052020318982E530884005408850000082B
:101CBC0051060319982E0530D3070030D43D6F0818
:101CCC00FF3ECF00FF3003180030D00052084F0603
:101CDC005004031D732E023008000130CF004F0852
:101CEC00D207552E530884005408850000080800BC
:101CFC005408D0005308CF0001304F07840050081F
:101D0C000318500A8500000808005408D000530836
:101D1C00CF0002304F07840050080318500A85008A
:101D2C00000808004E08CF00D0015008003A0319F3
:101D3C00A02E712E4F08003A0319782E013A031980
:101D4C007E2E033A03198B2E712E0800203086004C
:101D5C00013087000830DE0000301E00DE0BB32E91
:101D6C004E1CD72E56084201A007400157084201CD
:101D7C00A13D400158084201A23D400159084201D1
:101D8C00A33D40015A084201A43D40015B084201B9
:101D9C00A53D40015C084201A63D40015D084201A1
:101DAC00A73D4001D635D70DD80DD90DDA0DDB0D79
:101DBC00DC0DDD0DD536D40CD30CD20CD10CD00CE3
:101DCC00CF0CCE0C4E084F04500451045204530453
:101DDC0054045504031DB62E420120084001CE00C8
:101DEC00420121084001CF00420122084001D000ED
:101DFC00420123084001D100420124084001D200D5
:101E0C00420125084001D300420126084001D400BC
:101E1C00420127084001D50008004001DE004101C5
:101E2C006E084001E10041016D084001E0003F30C7
:101E3C00DB005B08DE05DF016F085F020318372F3C
:101E4C00600884006108850000085E060319372FBE
:101E5C000530E0070030E13D0130DB005B08DF07B7
:101E6C00222F6108DC006008DB0001305B07840076
:101E7C005C0803185C0A850000084101C20040019F
:101E8C006108DC006008DB0002305B0784005C0842
:101E9C0003185C0A850000084101C300B9304001F9
:101EAC00CE000030CF006108DC006008DB0003309E
:101EBC005B0784005C0803185C0A8500003FD000B7
:101ECC00013FD100410143084001D200D301D21B94
:101EDC00D3038B3182238F31410138084001CE006E
:101EEC00B930CF00410143088C3106248F314101B8
:101EFC00C10038084001D600B930D7004101430871
:101F0C008A31F822080040012F08C6003108C500AC
:101F1C002E08C4002D08C3002C08C2004008410143
:101F2C00D700400141084101D80040013E08410161
:101F3C00D50040013F084101D6007408D300750854
:101F4C00D40040013C084101D10040013D08410151
:101F5C00D20040013A084101CF0040013B08410149
:101F6C00D00040016D084101CD0040016E084101D7
:101F7C00CE00400138084101CB0040013908410135
:101F8C00CC00400136084101C9004001370841012D
:101F9C00CA00400134084101C70040013508410125
:101FAC00C800400132084101C5004001330841011D
:101FBC00C60040013C084201DA0040013D084201E4
:101FCC00DB0040016D084201DC0040016E0842015B
:101FDC00DD00400138084201DE00400139084201B1
:101FEC00DF00400136084201E000400137084201A1
:041FFC00E1000800F8
:020000040001F9
:08000000FF3FFF3FFF3FFF3F00
:0A000E00EC3FFF3F9F3FFF3FFF3F25
:00000001FF
