:04000000803117280C
:100008007E1480314E01961A8C1E0E2882316E2283
:10001800803115280B1B9B1E1528911E152883312E
:1000280078237E10090080311928543084008330E9
:1000380085001200BE001200BF001200C0001200AE
:10004800C1001200C200F001F101F201F301F40154
:1000580020308400003085001530833142237E1023
:1000680040018131DA294001B900833162238031AE
:100078007C01911119129913803044018F000D30C1
:1000880090007C01A41391149110003200320032C8
:1000980000327C019B149B10F401400139080319BC
:1000A800080094177C019017911111111115111165
:1000B80091179B111B111B151B1140013303031DC5
:1000C80076287C01911519169917C03044018F00C4
:1000D8000B3090008231F5228031833174238031D6
:1000E8007C01A41783316523803140013208B700B1
:1000F800B8013709B5003809B60082318622803147
:100108004E0110108331682371084001A100700866
:10011800A000F401F40A94130800F90083316B235A
:1001280080317C01911119129913803044018F009C
:100138000D3090007C01A41391149110003200320C
:10014800003200327C019B149B10F40179080319DA
:100158000800400194177C01901791111111111595
:10016800111191179B111B111B151B114001330312
:10017800031DCF287C01911519169917C030440129
:100188008F000B3090008331032380318331762335
:1001980080317C01A41783316E23803140013208FD
:1001A800F700F8017709F5007809F6008231E622B0
:1001B80080314E0110108331712371084001A10074
:1001C8007008A000F401F40A9413080071084001B3
:1001D800A3007008A2000C308231552280317608C5
:1001E800F1007508F0003B308331112380310D3068
:1001F800890BFC2800000030400141020D30031932
:100208004002031C0B290C30C0000030C1002C0830
:100218002D04031908002B08A9002A08A800023099
:1002280082315522803176084001AB007508AA005A
:100238003B308331112380310D30890B2129000097
:1002480001304001290274300319280203180800FC
:1002580001302B02743003192A02031808007403B2
:10026800031D080000308031912008004E01101C49
:1002780046297403031D4629003080313720813117
:100288004E011010033040012D02E83003192C02F2
:10029800031C0800AC01AD017C018F1D60297403AB
:1002A800031D6029AB0145018C017C01A5010330C8
:1002B800A500A5010830AB00400121087102031D0B
:1002C800672920087002031C7729003021020230B8
:1002D800031920020318772920087002A6002108B4
:1002E800713BA7007B297108A7007008A6002708A2
:1002F800BB002608BA00BB36BA0C3A08A4003B0873
:10030800A50008008331322381318131B021813148
:1003180083311E23813183312823813183315E2348
:10032800813182319D2281318231F52281318231C0
:100338003C2281318231B22281318231D72281310E
:1003480083313A2381318231C62281318331482376
:1003580081318231232208004001980199019A01D4
:1003680037309200F0309300BF3094001F307E0188
:10037800CE003030C3000730B800C401B901CF0146
:10038800BA01C501D0011F30BB00C6013F30D10002
:100398003F30BC00C7013F30D20017307D01BB00A1
:1003A80002307E01A6000130A700080081318621B5
:1003B800813182310222813129304001BD009630DD
:1003C800BC007F30890BE629BC0BE629BD0BE6296A
:1003D8008B170B1705304001BD000F30BC00F13002
:1003E800890BF429BC0BF429BD0BF42901308031A9
:1003F8003720813181313A218131FE290030803125
:100408003720823183314E2382314E018C125301C1
:1004180094177C0197154E018E1052010F08E03990
:1004280002388F003530890B172A00004E019112CF
:100438000E108E104001AC01AD01B30108008030F0
:1004480044018F000D30900003309100FF308D0083
:10045800D8308C004E01101044010D084001B10045
:1004680044010C084001B000353044018E000800FA
:1004780056304B019F00FF309D0083309C001D08C3
:10048800F3001C08F2004E018C1296167A304001D7
:10049800B5000330B6008331592390304B019E00DC
:1004A8000800F8007808F700F70DF70D41011D085E
:1004B8007706033977069D001D140D30890B622AD3
:1004C800000041019D149D18672A1C08F6001B08AE
:1004D800F50008008C1273084B019D0072089C00FF
:1004E80040014308440403197E2A44088A0043084B
:1004F8000A0082318031EA2001304001AC07003027
:10050800AD3D080044010E1D942A0E104001360826
:1005180044018D004001350844018C000E14080088
:100528004001360844018D004001350844018C0023
:1005380008007C019B010D309C000D309D000D30A2
:100548009E000D309F000230A000A101A201A3016E
:1005580083309A004E0191129B16080088307C0166
:10056800910017309200173093000E3094001B3022
:100578009500023096009701980190309900033059
:10058800900008007C01A5011A30A6000530A700DC
:10059800A801A9010130AA000830AB00AC01AD01E7
:1005A8008030A4000800AF010E30B000B101B201E4
:1005B800B3010230B4000230B500B601B701803093
:1005C800AE00080044010E1DF02A0E1076088D00BA
:1005D80075088C000E14080076088D0075088C00CC
:1005E80008000D30450190008F01910127308D00E2
:1005F8008C014E019010B03045018E0008000D307E
:10060800450190008F01910127308D008C014E012A
:100618009010B03045018E000800F6007608F5000D
:10062800F50DF50D41011D087506033975069D0088
:100638001D140800603051018D008F0191010630B2
:100648009300900192010800903053019400023009
:100658009500033096000530970008004F01960179
:100668009701980199019A019B010800F030410116
:100678009E009B019C0101309D00080064008001E0
:100688000131890B432B0034883052018E0002302F
:100698008F00080073084B019D0072089C00080039
:1006A800E83403340C34003402343608C400350806
:1006B800C3000800843052018C00080045018E13E5
:1006C800080044010E10080044010E1408004501FA
:1006D8008E13080044010E10080044010E1408008F
:0E06E8008E1708008E170800911208000800F7
:020000040001F9
:08000000FF3FFF3FFF3FFF3F00
:0A000E00EC3FFF3F9F3FFF3FFF3F25
:00000001FF
