:1000000080312C28220808007E1480314E01961A77
:100010008C1E0E288931B72180312A280B1F2A28EF
:100020009B1A911E17289731492780312A28191ABF
:100030000F1E2128420167088A0066080A008031E5
:100040002A28991A8F1E2A28420165088A00640806
:100050000A0080317E10090080312E28E5308400AE
:100060009730850066308600003087000830973171
:10007000872780317D30840088308500E13086001C
:10008000003087000A30973187278031F001F10175
:10009000F201F301F401F501203084000030850005
:1000A0002B30973181278031A030840000308500CB
:1000B0004130973181278031203084000130850024
:1000C0002030973181277E1040018B310C2B27087F
:1000D000A3002608A2002508A1002408A0004001D2
:1000E0003A084201C100400139084201C0004008FD
:1000F0004001CB00420141084001CC00CD01CE01BE
:10010000CF01D001D101D2013A084201C300400120
:1001100039084201C20042084001D30042014308AD
:100120004001D400D501D601D701D801D901DA01A7
:100130008C316E2480314B084201CC0040014C08C8
:100140004201CD0040014D084201CE0040014E0861
:100150004201CF0040014F084201D0004001500849
:100160004201D100400151084201D2004001520831
:100170004201D3004C084001CB0042014D08400130
:10018000CC0042014E084001CD0042014F08400121
:10019000CE00420150084001CF0042015108400109
:1001A000D000420152084001D100420153084001F1
:1001B000D200410168084201C100410167084201C3
:1001C000C00040084001D300420141084001D40072
:1001D000D501D601D701D801D901DA018C316E24BD
:1001E00080314B30860000308700403F4201C20022
:1001F000413FC300423FC400433FC500443FC600E7
:10020000453FC700463FC800473FC9000A3042018A
:10021000C936C80CC70CC60CC50CC40CC30CC20C28
:10022000890B0729420145084101A7004201440802
:100230004101A600420143084101A50042014208D4
:100240004101A400200824074201C0004101210807
:10025000253D4201C10041012208263D4201C20064
:1002600041012308273D4201C30043084001CE005D
:10027000420142084001CD00420141084001CC004A
:10028000420140084001CB0069084201C400C50199
:10029000C601C70147084001D2004201460840019B
:1002A000D100420145084001D0004201440840010C
:1002B000CF008B31382380314B084201C800400108
:1002C0004C084201C90040014D084201CA004001EA
:1002D0004E084201CB00410163084001CB004101BF
:1002E00064084001CC00CD01CE0141012B08400142
:1002F000D20041012A084001D100410129084001F2
:10030000D000410128084001CF008B3138238031D3
:100310004B084201C80740014C084201C93D400159
:100320004D084201CA3D40014E084201CB3D10300C
:10033000CB36CA0CC90CC80C890B98294B08410153
:10034000AB0042014A084101AA00420149084101AB
:10035000A900420148084101A80065084001D700F2
:10036000410166084001D800D901DA0141012B089A
:100370004001DE0041012A084001DD004101290859
:100380004001DC00410128084001DB008D310325DC
:1003900080315808B0005708AF002F086C07B5002F
:1003A00030086D3DB60041012E084001CF004101EB
:1003B0002F084001D000D101D20141012E08400197
:1003C000CB0041012F084001CC00CD01CE018B3183
:1003D000382380314E084201D70040014D084201C8
:1003E000D60040014C084201D50040014B084201B3
:1003F000D400410165084001D70041016608400171
:10040000D800D901DA01410169084001CF0041015A
:100410006A084001D000D101D201420157084001D1
:10042000CE00420156084001CD004201550840016E
:10043000CC00420154084001CB008B31382380317D
:100440004B084201C00040014C084201C10040017C
:100450004D084201C20040014E084201C3000A306B
:10046000C336C20CC10CC00C890B302A43084001B2
:10047000DE00420142084001DD0042014108400126
:10048000DC00420140084001DB008D3103255808A3
:10049000B2005708B10031083507B3003208363DC5
:1004A000B4000800683400346A3400346C3400341A
:1004B0006F340034713400347334003476340034D3
:1004C000783400347B3400347D340034803400349C
:1004D0008334003485340034883400348B34003461
:1004E0008E34003491340034943400349734003422
:1004F0009B3400349E340034A1340034A5340034DD
:10050000A8340034AC340034B0340034B334003494
:10051000B7340034BB340034BF340034C334003447
:10052000C8340034CC340034D0340034D5340034F2
:10053000D9340034DE340034E3340034E834003499
:10054000EC340034F1340034F7340034FC3400343B
:1005500001340134073401340C34013412340134D1
:10056000173401341D340134233401342934013467
:100570002F340134363401343C34013442340134F4
:100580004934013450340134563401345D3401347B
:10059000643401346B3401347234013479340134FD
:1005A0008134013488340134903401349734013477
:1005B0009F340134A7340134AF340134B7340134EB
:1005C000BF340134C7340134D0340134D834013459
:1005D000E0340134E9340134F1340134FA340134C3
:1005E000023402340B340234143402341C34023426
:1005F000253402342E340234373402343F3402348A
:1006000048340234513402345934023462340234EE
:100610006B340234743402347C3402348534023452
:100620008E340234963402349F340234A7340234B8
:10063000B0340234B8340234C0340234C834023422
:10064000D1340234D9340234E0340234E834023490
:10065000F0340234F8340234FF3402340734033403
:100660000E340334153403341D340334243403347A
:100670002A34033431340334383403343E340334FD
:10068000453403344B340334513403345734033486
:100690005D34033463340334683403346E34033418
:1006A00073340334783403347D34033482340334B4
:1006B000873403348C340334903403349534033456
:1006C000993403349D340334A1340334A534033402
:1006D000A9340334AD340334B0340334B4340334B4
:1006E000B7340334BA340334BD340334C034033470
:1006F000C3340334C6340334C8340334CB34033432
:10070000CD340334D0340334D2340334D4340334FA
:10071000D6340334D8340334DA340334DC340334C9
:10072000DE340334E0340334E1340334E33403349B
:10073000E4340334E6340334E7340334400128035B
:10074000031DB62C2708031DB62C08304201C0003B
:1007500040084001A500B62C97318D278331003A1F
:10076000031908000F308831E720A801A80AA50165
:10077000A50A080097318D278331003A0319080034
:100780008831D8208331013A031DCD2B023042013C
:10079000C00040084001A500080008304201C00028
:1007A00040084001A500080097318D278331003AA9
:1007B000031908008A31BB228331553A031DCD2B22
:1007C00003304201C00040084001A50008009731F5
:1007D0008D278331003A031908008A31BB22833107
:1007E0004201C00040084101B60036088931562157
:1007F0008331003A0319CD2BCB01CB0A41013608D6
:100800008E310E2683314201C00040084101C000F4
:100810004003031D212C02304201C000400840016A
:10082000CB00410136088E310E264201C10041083D
:100830004101C10004304201C00040084001A50050
:10084000080097316C2706304201C0004008400183
:10085000A500080097318D278331003A031908005D
:100860008A31BB2283314201C00040012408B73ED7
:100870008600870142014008810041014108420190
:10088000C000C101C01BC1030130C20042084001C9
:10089000A40742014108803A803C031D522C4008C5
:1008A00040012402031C08004001A401053042015C
:1008B000C00040084001A500080097318D27833112
:1008C000003A031908008A31BB2283314201C0007B
:1008D00040084101BF0036084201C0004008400105
:1008E000CB00B7304201C10041084001CC004101BA
:1008F00041088B319623833141013F06031DCD2BE7
:1009000007304201C00040084001A5000800410135
:1009100036088F317D27833107304201C0004008FF
:100920004001A500420169088A0068080A00843174
:10093000973176278331A401A8010030CB00CC0089
:100940000D30CD000030CE00B63087314E278331D8
:1009500042019E1CB02C973171274001A50108006F
:100960000930C00040084001A500080025084201E8
:10097000C000C1014108003A0319BF2CDF2C400818
:10098000003A0319AC2B013A0319BA2B033A0319A5
:10099000D42B013A0319E72B073A03192A2C013A01
:1009A00003195D2C033A0319872C013A0319922C81
:1009B0000F3A0319982C013A0319A82CDF2C0800D0
:1009C0005E308A312B228431D8005808DD00792D21
:1009D0005E088D31B12508005E08D8005808AE00C9
:1009E000080000308D31B125191308005E08D800C9
:1009F0005808EB0008005E08D800D9015F08DA004B
:100A0000DB015A08DB00DA0158085A044101E90009
:100A1000400159085B044101EA0008005E08D80063
:100A2000D9015F08DA00DB015A08DB00DA01580857
:100A30005A044101E700400159085B044101E80004
:100A400008005E08D800D9015F08DA00DB015A0807
:100A5000DB00DA0158085A044101E5004001590859
:100A60005B044101E60008005E08D800D9015F0878
:100A7000DA00DB015A08DB00DA0158085A04E60004
:100A800059085B04E70008005E08D8005808EA002F
:100A90008A314C2208005E08D8005808E90069082D
:100AA000D800D901D835D90DD809D909D80A0319E0
:100AB000D90A58084101E300400159084101E40006
:100AC00008005E08D8005808AD0008005E08D8008D
:100AD000D9015F08DA00DB015A08DB00DA015808A7
:100AE0005A044101E100400159085B044101E20060
:100AF00008005D08D800D9015908003A0319812D72
:100B0000D72D5808003A0319E82C013A0319EC2CA8
:100B1000033A0319F12C123A0319F62C013A03197E
:100B2000FB2C033A03190E2D013A0319212D073A24
:100B30000319342D013A0319442D033A03194B2D9F
:100B4000013A0319612D0F3A0319662D383A03193A
:100B5000D72D013A0319D72D033A0319D72D013A9E
:100B60000319D72D073A0319D72D013A0319D72DA9
:100B7000033A0319D72D013A0319D72D0F3A031958
:100B8000D72D013A0319D72D033A0319D72D013A6E
:100B90000319D72D073A0319D72D013A0319D72D79
:100BA000033A0319D72D013A0319D72DD72D080081
:100BB00040012C08CB004B08C3002E08CB004B088B
:100BC000C2002B08CB004B08C1002A08CB004B0801
:100BD000C0002908CB004B08BF003D08CB004B08E4
:100BE0004101D50040013E08CB004B084101D60031
:100BF00040013B08CB004B084101D30040013C08B9
:100C0000CB004B084101D40074084001CB004B08D5
:100C10004101D10075084001CB004B084101D200D1
:100C200040013908CB004B084101CF0040013A0890
:100C3000CB004B084101D00040013708CB004B08E6
:100C40004101CD0040013808CB004B084101CE00E6
:100C500040016C08CB004B084101CB0040016D08FE
:100C6000CB004B084101CC0040013508CB004B08BC
:100C70004101C90040013608CB004B084101CA00C0
:100C800040013308CB004B084101C7004001340844
:100C9000CB004B084101C80040013108CB004B0894
:100CA0004101C50040013208CB004B084101C6009C
:100CB00040012F08CB004B084101C3004001300820
:100CC000CB004B084101C40040013908CB004B0860
:100CD0004201B80040013A08CB004B084201B9007C
:100CE00040016C08CB004B084201BA0040016D087E
:100CF000CB004B084201BB0040013508CB004B083C
:100D00004201BC0040013608CB004B084201BD0047
:100D100040013308CB004B084201BE0040013408BB
:100D2000CB004B084201BF00080040013C084101D4
:100D3000AD0040013B084101AC000C3089318521F8
:100D4000863177084001BC007608BB003B30883113
:100D5000932086310D30890BAB2E0000013040010D
:100D60006702A73003196602031CBA2EA630E600FC
:100D70000130E70041012D0840016702031DC42E28
:100D800041012C08400166020318D92E3C08670275
:100D9000031DCC2E3B0866020318D92E2C03031D1D
:100DA000D92E0230FB007B08AB0000308D31552579
:100DB00086314101340835040319102F40013E08E3
:100DC0004101B10040013D084101B00002308931CC
:100DD0008521863177084001BE007608BD003B3092
:100DE0008831932086310D30890BF42E00000130BC
:100DF0004101310274300319300203180800013038
:100E000040013E02743003193D02031808002C0310
:100E1000031D0800AA01AA0A00308D3155250800DB
:100E200075084001A1007408A000143089318521A3
:100E300086317708F5007608F4003B30883193203E
:100E400086310030400121020A30031920020318C4
:100E5000382F003075020A30031974020318382F36
:100E60000230FB007B08A90000308D3155250800B9
:100E700003302102F63003192002031C080003305E
:100E80007502F63003197402031C08000330FB00DE
:100E90007B08A90000308D3155250800D300530888
:100EA000CF004F08D4004D084E04031908004B082A
:100EB000CF005408860087014F0881004B08CF00FF
:100EC0004D085407D0005008FF3E860087014F08A8
:100ED000810000304E02033003194D02031C08004C
:100EE0004B08CF00540A860087014F0881004B0849
:100EF000CF005408023E860087014F0881004B084E
:100F0000CF004D085407D0005008FE3E86008701F0
:100F10004F0881004B08CF004D085407D0005008FF
:100F2000FD3E860087014F08810000304E020730E9
:100F300003194D02031C08004B08CF005408033E60
:100F4000860087014F0881004B08CF004D085407E9
:100F5000D0005008FC3E860087014F088100003019
:100F60004E02093003194D02031C08005409CF003A
:100F70005509D000CF0A0319D00A03304F05D1001C
:100F800000305005D2005108CF004F08D407510857
:100F9000CD025208CE3BFC30CD05FF30CE054D08CA
:100FA0004E04031908004B08CF005408860087013F
:100FB0004F0881000130CD020030CE3B0130CF0020
:100FC0004F08D407CF2F0034013401344A340034A1
:100FD0000134013401344934003402340134013421
:100FE00048340034103401340134473400341134AF
:100FF00001340234DF340034123401340234DD347D
:101000000034133401340234DB340034143401343A
:101010000234D934003415340134013446340034F8
:1010200016340134013445340034173401340134AA
:1010300044340034183401340234D73400342034BA
:101040000034013443340034213400340134423458
:101050000034223400340134413400342334003469
:101060000134403400342434003401343F3400343B
:10107000253400340234D5340034263400340234AC
:10108000D3340034273400340234D13400342834CB
:1010900000340234CF340034293400340234CD34E7
:1010A00000342A3400340234CB3400342B3400347E
:1010B0000234C93400342C3400340234C7340034D0
:1010C0002D3400340234C53400342E34003402345C
:1010D000C33400342F3400340834383401348430BD
:1010E00052018C000800603051018D008F01910188
:1010F00006309300900192010800E83403340C3468
:10110000FF349E34023474341534D3340334013044
:10111000F60076084001A60768082602031C0800AE
:10112000973167270800F7007708F600F60DF60DEF
:1011300041011D087606033976069D001D1408003E
:10114000E3304001CD008730CE00E030CF000430E6
:10115000D0001C308A310C2208000D30450190006F
:101160008F01910127308D008C014E019010B0301D
:1011700045018E0008000D30450190008F0191015E
:1011800027308D008C014E019010B03045018E004B
:10119000080044010E1DD3280E1077088D00760834
:1011A0008C000E14080077088D0076088C0008006B
:1011B0008A31BB228831003A031DE52880310220A4
:1011C0008831891CE5280130080000300800CE0075
:1011D0004E08CD004D08E8000030CB00CC00973120
:1011E000952700004001A701A70A0800AF010E30B3
:1011F000B000B101B201B3010230B4000230B50059
:10120000B601B7018030AE0008007C01A5011A309C
:10121000A6000530A700A801A9010130AA000830E6
:10122000AB00AC01AD018030A400080088307C0127
:10123000910017309200173093000E3094001B304D
:101240009500023096009701980190309900033084
:10125000900008007C019B010D309C000D309D002A
:101260000D309E000D309F000230A000A101A201B0
:10127000A30183309A004E0191129B16080044018D
:101280000E1D4D290E1040014C0844018D004001F7
:101290004B0844018C000E14080040014C08440126
:1012A0008D0040014B0844018C0008004001D20031
:1012B000CB01CB0A52088E310E268931023A031D2A
:1012C00063290030080052083F398E31FA268931EF
:1012D0005206031D61290130080042011908F60079
:1012E0007108283E860001308700760881000130B1
:1012F000F6007608F107083071020318F101013099
:10130000F60076084001A3070800F9007908F80004
:10131000F80DF80D41011D087806033978069D0087
:101320001D140D30890B9229000041019D149D1858
:1013300097291C08F7001B08F600080080304401BC
:101340008F000D30900003309100FF308D00D830B9
:101350008C004E01101044010D084201DB004401D5
:101360000C084201DA00353044018E0008008C126E
:1013700040016F084B019D0040016E084B019C002D
:1013800042015C085D040319CA295D088A005C08F3
:101390000A0089318631952601304101B4070030B9
:1013A000B53D080056304B019F00FF309D00833053
:1013B0009C001D084001EF004B011C084001EE009D
:1013C0004E018C12961648304001CB001730CC00ED
:1013D0009731CD2790304B019E0008000830410125
:1013E0006D020318092A7208303E8600013087001A
:1013F000010842019A000130F6007608F207083031
:1014000072020318F2010130F60076084101ED077F
:1014100008004E0119120800D2004E084101EC00EC
:1014200040014D084101EB0040015208D100510834
:101430004101EE00400150084201E90040014F081F
:101440004201E800973176278A31973171278A3136
:101450009731D52708004001D600410136083F39B1
:101460004001D5005508D700B730CB000030CC0084
:101470000830CD000030CE0056088A31E2228A3191
:101480000030CB00CC000D30CD000030CE00B630A7
:1014900087314E275708080000308D31B1258A3139
:1014A000530194177C0197154E018E1052010F08BD
:1014B00040016A06E0396A0652018F003530890B17
:1014C0005F2A00009731ED274E018C1291120E1009
:1014D0008E104101B401B5014001AE010800CC00FD
:1014E00041016D080319702A4E01191A7C2A400126
:1014F0004C0842019A00922A191240014C08CB0074
:101500007308303E8600013087004B0881000130AF
:10151000CB004B08F307083073020318F3010130C6
:101520004101ED024E01191608004001D700D80113
:10153000570858020318AC2A58085407D500550814
:101540008600870101088A316F228A31013040010B
:10155000D5005508D807982A5308D5005508CB0060
:101560005408D6005608CC0057088B3196238A3190
:101570008A316F22080023080319BB2A7008203E15
:101580008600013087000108CB004B08A2007008DC
:10159000283E8600013087000108CB004B08CC00B4
:1015A0000130CB004B08F007083070020318F0013F
:1015B0004E01991201304001A3024E0199164001DB
:1015C0004C080800D4004C08D2004B08D100540845
:1015D000CF004F08D3000130CD020030CE3B4D0A82
:1015E00003194E0A031908005108860052088700A3
:1015F0000108CF004F08D0000130D1070030D23DA4
:101600005008CF005308860087014F088100013041
:10161000CF004F08D307EB2A8B31C6238B318A3199
:101620004C228B31191729304201D9009630D8004D
:101630007F30890B192BD80B192BD90B192B8B1732
:101640000B1705304201D9000F30D800F130890B5B
:10165000272BD80B272BD90B272B01308D31B12508
:101660008B3183319E238B318E3178268B31312B18
:101670000030D6000030D5000030D4000030D30058
:101680004B1C4A2B4F08D3075008D43D5108D53D79
:101690005208D63D0130CF35D00DD10DD20D890B7A
:1016A0004B2B0130CE36CD0CCC0CCB0C890B522BF6
:1016B0004E084D044C044B04031D402B5608CE002D
:1016C0005508CD005408CC005308CB000800400159
:1016D000980199019A013730920030309300BF3061
:1016E00094001F307E01CE001030C3000730B800D8
:1016F000C401B901CF01BA01C501D0011F30BB003F
:10170000C6013F30D1003F30BC00C7013F30D2009E
:1017100017307D01BB000F307E019F000230A60014
:101720000130A7000D307D01CB0008004001CF0043
:101730004B08CD00CE014D08D1004E08D200D0019B
:101740004F0850020318C22B4C088600870101087D
:101750005107D10052080318520AD2000130CD00BF
:101760004D08CC0701305202003003195102031C0E
:10177000BD2BFF30D1020030D23B0130CD004D08EF
:10178000D007A02BD109D209510808009731DD27D5
:101790008B318B3167238B31883173208B319731BB
:1017A000F6278B3188316F208B3189312A218B319B
:1017B0008831BB208B318931D2218B31893116217F
:1017C0008B318831F6208B3197319D278B318931D0
:1017D00005218B3197317B278B3189319E218B31CC
:1017E0008C3129248B318831A02008007108203EDB
:1017F00086000130870081011D1D092C7108203EE3
:10180000860001308700811463088A0062080A009C
:101810008C3142019D1C172C7108203E860001303E
:101820008700011561088A0060080A008C31710880
:10183000203E86000130870001080319262C420152
:101840005F088A005E080A008C31080089316D212A
:1018500008004E019912F6304001CB000B30CC004D
:101860009731BD278C314E011912EE304001CB006B
:101870000930CC009731C5278C3108309F0090305B
:101880009D0024309E00A0309B0001309C0047301A
:101890004001CB001730CC009731AD278C3152304E
:1018A0004001CB001730CC009731B5278C314F3039
:1018B0004001CB001730CC009731A5274001A20191
:1018C000F301F2010830CD004D084101ED00F101B6
:1018D000F0014001A3014E01991608005C3086001A
:1018E000003087000830DB0000301E00DB0B752C59
:1018F0004B1C8A2C5308DC075408DD3D5508DE3D9F
:101900005608DF3D5708E03D5808E13D5908E23DE3
:101910005A08E33DD335D40DD50DD60DD70DD80DCE
:10192000D90DDA0DD236D10CD00CCF0CCE0CCD0C9B
:10193000CC0CCB0C4B084C044D044E044F0450040B
:1019400051045204031D782C5C08CB005D08CC00C8
:101950005E08CD005F08CE006008CF006108D000AF
:101960006208D1006308D20008004001D101D20111
:10197000D401D5012108D2002008D1007508210228
:10198000031DC42C740820020318CA2C7508D20049
:101990007408D1007D30D4000030D500D301550843
:1019A000803ACD007F304D02031DD82CD93054022F
:1019B000031CF22C40015308CD00CE01CD35CE0DD5
:1019C00052304D07840082304E3D8500003FCF00ED
:1019D000013FD00052085002031DF02C51084F0265
:1019E000031CF82C40015508CC005408CB0008001B
:1019F0005408FF3ED400FF30553DD5000130CD00E6
:101A00004D08D307CF2C0030E3000030E200003057
:101A1000E1000030E0005A08590458045704031943
:101A20004C2DE401E40ADA1B212D0130D735D80D05
:101A3000D90DDA0D890B162D0130DF005F08E407A0
:101A4000132D0130E035E10DE20DE30D890B222D60
:101A50005A085E02031D362D59085D02031D362DFE
:101A600058085C02031D362D57085B02031C412DEC
:101A70005708DB025808DC3B5908DD3B5A08DE3BBF
:101A800060140130DA36D90CD80CD70C890B422DF2
:101A90000130E402031D212D6308DA006208D90039
:101AA0006108D8006008D7000800FA0097315B276A
:101AB0008D317C01911119129913803044018F00EE
:101AC0000D3090007C01A41391149110003200326B
:101AD000003200327C019B149B104001AC017A085B
:101AE00003190800AB01AA01A90194177C01901702
:101AF000911111111115111191179B111B111B152A
:101B00001B1140012E03031D962D7C019115191602
:101B10009917C03044018F000B3090008831AD2000
:101B20008D3197314B278D317C01A4179731582780
:101B30008D3140012D08F800F9017809F600790986
:101B4000F7008831C9208D314E011010973155278B
:101B500040013C08B8003B08B700AC01AC0A941344
:101B600008004001CF00973164278D317C0191112D
:101B700019129913803044018F000D3090007C01C0
:101B8000A4139114911000320032003200327C0113
:101B90009B149B104001AC014F0803190800AB01D6
:101BA000AA01A90194177C01901791111111111527
:101BB000111191179B111B111B151B1140012E03B5
:101BC000031DF32D7C01911519169917C03044019E
:101BD0008F000B3090008831BB208D3197314D271D
:101BE0008D317C01A417973161278D3140012D087B
:101BF000CD00CE014D09CB004E09CC0089313F21EB
:101C00008D314E01101097315E2740013C08B8001D
:101C10003B08B700AC01AC0A941308004001CE00A9
:101C200041016C084001D10041016B084001D00026
:101C30003F30CC004C08CE05CF0141016E08400179
:101C40004F020318642E50088400510885000008D4
:101C50004E060319642E0530D0070030D13D4101F6
:101C60006E08FF3E4001CC00FF3003180030CD006D
:101C70004F084C064D04031D3F2E02300800013072
:101C8000CC004C08CF071D2E500884005108850059
:101C9000000808005108CD005008CC0001304C0766
:101CA00084004D0803184D0A8500000808005108FB
:101CB000CD005008CC0002304C0784004D080318BA
:101CC0004D0A8500000808004B08CC00CD014D08E6
:101CD000003A03196C2E3D2E4C08003A0319442E8D
:101CE000013A03194A2E033A0319572E3D2E0800D4
:101CF0004E01101C892E40012C03031D892E033038
:101D0000E5006508AB0000308D31B1258E314E0104
:101D10001010410162083502031D902E6108340243
:101D2000031C0800B401B5017C018F1DA62E4001E3
:101D30002C03031DA62E7C01AB0145018C017C0107
:101D4000A5010330A500A5010830AB008C31B524F6
:101D50008E314C08ED004B08EC006D08803AE50030
:101D600080306502031DB62E73306C02031CC02E3A
:101D700073304001EC000030ED00A901A90AF32EF8
:101D8000400138083C02031DC72E37083B02031CE4
:101D9000D72E003038020A30031937020318D72E25
:101DA00037083B02B90038083C3BBA00DB2E3C0840
:101DB000BA003B08B9003A084101AF0040013908B8
:101DC0004101AE00803167208E313408803AE50051
:101DD00080306502031DEE2E6B083302031CF72EC4
:101DE0004001AB01AB0A00308D31B1258E31853118
:101DF000D8250800CC004C08CB004B08CD00CD1CEA
:101E0000032F0130042F0030CB004D1C092F01306F
:101E10000A2F00304B060319102F40014D17122FC7
:101E200040014D134D1D162F0130172F0030CB00F0
:101E30004D1F1C2F01301D2F00304B060319232F7F
:101E400040014D17252F40014D134D1E292F013004
:101E50002A2F0030CB004D1F2F2F0130302F0030A4
:101E60004B060319362F40014D17382F40014D13F3
:101E7000CD1D3C2F01303D2F0030CB00CD1C422F1B
:101E80000130432F00304B060319492F4001CD1775
:101E90004B2F4001CD134D1E4F2F0130502F0030DE
:101EA000CB00CD1F552F0130562F00304B060319A4
:101EB0005C2F4001CD175E2F4001CD13CD1E622F48
:101EC0000130632F0030CB00CD1F682F0130692F08
:101ED00000304B0603196F2F4001CD17712F4001C1
:101EE000CD130310CD1F0314031C792F4001CD1710
:101EF0007B2F4001CD134D0808004001DC0041015B
:101F00006C084001DF0041016B084001DE003F30FA
:101F1000D9005908DC05DD0141016E0840015D0270
:101F20000318A32F5E0884005F08850000085C0684
:101F30000319A32F0530DE070030DF3D0130D90043
:101F40005908DD078C2F5F08DA005E08D9000130E0
:101F5000590784005A0803185A0A85000008DB0054
:101F60005B084101C00040015F08DA005E08D9004B
:101F70000230590784005A0803185A0A85000008DD
:101F8000DB005B084101C10040015F08DA005E0828
:101F9000D9000330590784005A0803185A0A8500EB
:101FA000003FCB00013FCC00410141084001CD0082
:101FB000CE01CD1BCE03B7308A31E2228F314101F1
:101FC00036084001D9005908CB00B730DA005A086A
:101FD000CC00410141088B3196238F31DB005B0837
:101FE0004101BF0036084001D9005908D300B7307D
:101FF000DA005A08D400410141088A3195220800CC
:102E8E0008000800911208008E1708008E1708001F
:102E9E0089316D2108001D121D16080044010E1403
:102EAE00080044010E10080045018E13080044016D
:102EBE000E14080044010E10080045018E13080080
:102ECE0000004001A601A701080042011D124E019B
:102EDE009912080042011D164E01991608000000B5
:102EEE004001A601A7010800883052018E00023071
:102EFE008F000800640080010131890B822F00349D
:102F0E00FE0012001E00FE0B882F00344001230825
:102F1E000319932F01300800003008004C084B01B4
:102F2E009D0040014B084B019C000800F030410110
:102F3E009E009B019C0101309D0008004C0842013F
:102F4E00DF0040014B084201DE0008004C08420140
:102F5E00E30040014B084201E20008004C08420128
:102F6E00E10040014B084201E00008004C0842011C
:102F7E00E50040014B084201E40008004C08420104
:102F8E00E70040014B084201E60008004C084201F0
:102F9E00DD0040014B084201DC0008008730400193
:102FAE00CB000830CC009731CD2708004F01960199
:102FBE009701980199019A019B010800BC340034D5
:102FCE000A347A340334AF345534003440016F0878
:102FDE004B019D0040016E084B019C000800903093
:102FEE00530194000230950003309600053097008F
:022FFE000800C9
:020000040001F9
:0A000E00EC3FFF3F9F3FFF3FFF3F25
:00000001FF
