:10000000803125287A3400347E1480314E01961ECA
:100010000A280B2813288C1E0E280F281328843139
:10002000DE24803123280B1F1628172823289B1E27
:100030001A281B282328911E1E281F2823288E31AA
:100040000C26803123287E1009008031272880313A
:1000500002208031ED00803103208031EE005F30DE
:1000600084008E308500BE30860000308700093065
:100070008731F927803166308400003085000730F1
:100080008E3140268031A0308400003085001E3043
:100090008E31402680317E1040018731CF2F4001C4
:1000A0003D088039C7003D35CD00BC1F5828592870
:1000B0005A284D144D0803195E285F286E284D0AF2
:1000C000031D632864286C280030BD000030BC008C
:1000D0000030BB000030BA00BC1776280030BD00ED
:1000E0000030BC000030BB000030BA00410880394D
:1000F000C2004208C7064135CC00C01F80288128B5
:1001000082284C144C0803198628872896284C0A04
:10011000031D8B288C2894280030C1000030C000BB
:100120000030BF000030BE00C0179E280030C10064
:100130000030C0000030BF000030BE004C08031982
:10014000A228A328A8284D08031DA728A828B1285D
:100150000030BD000030BC000030BB000030BA00F1
:10016000892A3A08F00040088F31B327803171089E
:100170004001D3007008D2005208C200C301C4017C
:10018000C5014508CB004408CA004308C90042081D
:10019000C8005308C200C301C401C5014508D1000D
:1001A0004408D0004308CF004208CE003B08F000CE
:1001B0003F088F31B327803171084001D3007008A8
:1001C000D2005208C200C301C401C5014208C807D9
:1001D0004308C93D4408CA3D4508CB3D5308C20009
:1001E000C301C401C5014208CE074308CF3D4408FE
:1001F000D03D4508D13D3C08F0003E088F31B32783
:10020000803171084001D3007008D2005208C2004A
:10021000C301C401C5014208C8074308C93D4408D9
:10022000CA3D4508CB3D5308C200C301C401C50106
:100230004208CE074308CF3D4408D03D4508D13D94
:100240000830C835C90DCA0DCB0D890B21293B08D3
:10025000F0003E088F31B327803171084001D30090
:100260007008D2005208C8075308C93D0030CA3D83
:10027000CB3D3A08F0003F088F31B3278031710839
:100280004001D3007008D2005208C8075308C93D86
:100290000030CA3DCB3D0830C835C90DCA0DCB0D65
:1002A000890B4C293A08F0003E088F31B327803182
:1002B00071084001D3007008D2005208C8075308E3
:1002C000C93D0030CA3DCB3D3B08F00040088F31AE
:1002D000B327803171084001D3007008D200520862
:1002E000CE075308CF3D0030D03DD13D3C08F00053
:1002F0003F088F31B327803171084001D300700867
:10030000D2005208CE075308CF3D0030D03DD13D3A
:100310003C08F00040088F31B3278031710840015C
:10032000D3007008D2005208C2005308C300C401B1
:10033000C5010830C235C30DC40DC50D890B9A29FE
:100340004208CE074308CF3D4408D03D4508D13D83
:100350004808C2004908C3004A08C4004B08C50049
:100360001830C536C40CC30CC20C890BB129420825
:10037000CE074308CF3D4408D03D4508D13D083065
:10038000C835C90DCA0DCB0D890BC0294D084C07C6
:10039000C200C301C30D4208823ED200FF30433D7C
:1003A000D300E9290130CE35CF0DD00DD10D890B09
:1003B000D329CB1FDC29DD29DE294E140130C835B5
:1003C000C90DCA0DCB0D890BDF29FF30D207FF30D5
:1003D000D33DD01FEC29ED29D229CC01CB1FF12927
:1003E000F2290E2AFF304805C200FF304905C3003C
:1003F000FF304A05C4007F304B05C5004508440462
:10040000430442040319052A062A092ACC01CC0A0E
:100410000E2A4E1C0C2A0D2A0E2A062A4C080319F5
:10042000122A132A3B2A0130CE070030CF3D00307C
:10043000D03D0030D13D511C1E2A1F2A3B2A4E08B8
:10044000C2004F08C3005008C4005108C500013065
:10045000C600C537C40CC30CC20CC60B292A4508FC
:10046000D1004408D0004308CF004208CE0001303C
:10047000D2070030D33D5308803AC2008030420298
:10048000031D442AFF305202031C472A482A522ADD
:100490007F304001D1008030D0000030CF000030EC
:1004A000CE007D2A40015308803AC20080304202CB
:1004B000031D5C2A0130520203185F2A602A6B2A4E
:1004C00000304001D1000030D0000030CF000030BB
:1004D000CE00C7017D2A40015208CD00FF30CE0575
:1004E000FF30CF057F30D0050030D1054D1C792A73
:1004F0007A2A7B2AD0174D36D1004708C20042081D
:10050000D1045108BD005008BC004F08BB004E0884
:10051000BA000800400127088039B1002735B8002B
:10052000A61F932A942A952A381438080319992A61
:100530009A2AAA2A380A031D9E2A9F2AA72A00302F
:10054000A7000030A6000030A5000030A400A617C8
:10055000A701B22A0030A7000030A6000030A50095
:100560000030A40023088039A8002808B1062335EC
:10057000B900A21FBC2ABD2ABE2A391439080319A2
:10058000C22AC32AD32A390A031DC72AC82AD02A55
:100590000030A3000030A2000030A1000030A00015
:1005A000A217A301DB2A0030A3000030A200003014
:1005B000A1000030A0002308220421042004031D10
:1005C000E22AE32AFC2A0030A7000030A60000300F
:1005D000A5000030A4008030A6047F30A7043108B5
:1005E000A8002808A7042708A3002608A2002508B9
:1005F000A1002408A000332C3808031D002B012B78
:100600000A2B0030A3000030A2000030A10000300F
:10061000A000332C3808A800A9012908AB0039082C
:100620002802AA00031CAB032A087F3EB200003058
:100630002B3DB3002708B0002608AF002508AE0008
:100640002408AD000030A7000030A6000030A5004F
:100650000030A4000030B7000030B6000030B50014
:100660000030B400B901722B39080319382B392B2B
:10067000532B0130AD35AE0DAF0DB00D890B3A2BBC
:100680000130A435A50DA60DA70D890B412BB71F71
:100690004A2B4B2B4C2B24140130B435B50DB60D21
:1006A000B70D890B4D2B23083002031D612B220847
:1006B0002F02031D612B21082E02031D612B200830
:1006C0002D02031C642B652B6E2B37172008AD02FF
:1006D0002108AE3B2208AF3B2308B03B0130A80005
:1006E0002808B9071A303902031C772B782B342BD2
:1006F00030082F042E042D0403197F2B802B992BF7
:100700003414992B0130A435A50DA60DA70D890B26
:10071000832BB71F8C2B8D2B8E2B24140130B435DB
:10072000B50DB60DB70D890B8F2BFF30B207FF301B
:10073000B33DA61F9C2B9D2B822BB901B71FA12B6C
:10074000A22BBE2BFF303405A800FF303505A900D1
:10075000FF303605AA007F303705AB002B082A048E
:10076000290428040319B52BB62BB92BB901B90AF2
:10077000BE2B241CBC2BBD2BBE2BB62B390803195A
:10078000C22BC32BEB2B0130A4070030A53D00305A
:10079000A63D0030A73D271CCE2BCF2BEB2B2408EA
:1007A000A8002508A9002608AA002708AB000130E8
:1007B000AC00AB37AA0CA90CA80CAC0BD92B2B089E
:1007C000A7002A08A6002908A5002808A4000130CF
:1007D000B2070030B33D3308803AA80080302802C9
:1007E000031DF42BFF303202031CF72BF82B052CD2
:1007F000FF304001B2000030B3000030A7000030ED
:10080000A6000030A5000030A40040013308803A63
:10081000A80080302802031D0F2C0130320203187B
:10082000122C132C1F2C4001B201B3010030A70081
:100830000030A6000030A5000030A400B101400146
:100840003208B800381C252C262C282CA6172C2C56
:100850007F30A8002808A6053836A7003108A80070
:100860002808A704F32A0800F80078080319392C8F
:100870003A2C4E2CF31F3D2C3E2C4E2C7009FA00C6
:100880007109FB007209FC007309FD00FA0A0319E3
:10089000FB0A0319FC0A0319FD0A562C7308FD0014
:1008A0007208FC007108FB007008FA0073087204FB
:1008B00071047004031D5D2C5E2C672C0030F30066
:1008C0000030F2000030F1000030F000DD2C9630F6
:1008D000F900752C0130F4007408F9070130FD3679
:1008E000FC0CFB0CFA0C890B6F2CFE307D05031DF4
:1008F0007A2C7B2C6A2C8F2C0130F4007408F907B9
:100900000130FA070030FB3D0030FC3D0030FD3D7A
:100910000130FD36FC0CFB0CFA0C890B892CFF30E6
:100920007D05031D942C952C7C2C9F2C0130F90205
:100930000130FA35FB0DFC0DFD0D890B992CFC1BCC
:10094000A22CA32CA92C023079020318A82CA92CC4
:10095000962C7918AC2CAD2CB52CFF30FA05FF3055
:10096000FB057F30FC05FF30FD050310F90C79080D
:10097000F400F501F601F7011830F435F50DF60D28
:10098000F70D890BBD2C7408FA047508FB04760872
:10099000FC047708FD0478080319CF2CD02CD52C43
:1009A000F31FD32CD42CD52CFD177D08F3007C0825
:1009B000F2007B08F1007A08F00008004E018C126A
:1009C000400167084B019D00400166084B019C00F7
:1009D00041014E084F040319EE2CEF2CF42C4F0864
:1009E0008A004E080A008431410144084001EA07A8
:1009F000410145084001EB3D0C308F313F278431E8
:100A000071084001E9007008E8003B308E317C2617
:100A100084310D30890B0A2D000040016908D50092
:100A20006808D4006A08D6006B08D700D801D9013D
:100A300085316D258431400157084101A3004001F3
:100A400056084101A200400155084101A1004001A2
:100A500054084101A0002308F3002208F2002108F5
:100A6000F1002008F0004108F7004008F6003F08B8
:100A7000F5003E08F4008531F72584310318412D37
:100A8000422D4D2D40016E086902031D492D6D0850
:100A9000680203184C2D4D2D6C2D8E311B26843190
:100AA00041012308F3002208F2002108F100200888
:100AB000F0004108F7004008F6003F08F5003E0846
:100AC000F4008531F7258431031C672D682D6C2DCA
:100AD00000308631E526843108003E304001BD00FB
:100AE0007930BC00DB30BB002330BA005408F00082
:100AF0005508F100F201F3010030843134248531CE
:100B000073084001C1007208C0007108BF0070087E
:100B1000BE0080314F20853140013D08E5003C0892
:100B2000E4003B08E3003A08E2006508BD00640801
:100B3000BC006308BB006208BA006508C100640815
:100B4000C0006308BF006208BE0080314F208531BD
:100B500040013D08E1003C08E0003B08DF003A08A6
:100B6000DE004430A3007A30A2000030A100003043
:100B7000A0005908F3005808F2005708F100560881
:100B8000F000003084313424853173084001A7001F
:100B90007208A6007108A5007008A40082318A229C
:100BA000853140012308BD002208BC002108BB009C
:100BB0002008BA006108C1006008C0005F08BF00DB
:100BC0005E08BE0080314F20853140013D08DD00C8
:100BD0003C08DC003B08DB003A08DA005D08D7007F
:100BE0005C08D6005B08D5005A08D4000800003025
:100BF0007005F80000307105F90080307205FA00C8
:100C00007F307305FB007B087A0479047804031DA8
:100C10000A2E0B2E132E0030F3000030F2000030AD
:100C2000F1000030F00000307405F8000030750568
:100C3000F90080307605FA007F307705FB007B08ED
:100C40007A0479047804031D262E272E2F2E0030D7
:100C5000F7000030F6000030F5000030F400F31F1C
:100C6000322E332E4B2E0030F8000030F9000030C9
:100C7000FA008030FB007008F8027108F93B720836
:100C8000FA3B7308FB3B7B08F3007A08F200790813
:100C9000F1007808F000F71F4E2E4F2E672E00301F
:100CA000F8000030F9000030FA008030FB007408D2
:100CB000F8027508F93B7608FA3B7708FB3B7B089E
:100CC000F7007A08F6007908F5007808F40080301B
:100CD000F3068030F70677087302031D792E760835
:100CE0007202031D792E75087102031D792E740896
:100CF000700203187C2E7D2E7F2E0310802E03148D
:100D000008004101CB008E31272686317C019111EC
:100D100019129913803044018F000D3090007C012E
:100D2000A4139114911000320032003200327C0181
:100D30009B149B104101BD014B080319A02EA12E4D
:100D4000E42E400194177C01901791111111111597
:100D5000111191179B111B111B151B1141013C0314
:100D6000031DB32EB42EC52E7C01911519169917AB
:100D7000C03044018F000B3090008E31A4268631A4
:100D80008E31242686317C01A4178E3121268631AE
:100D900041013A08C900CA014909C7004A09C80007
:100DA0008F310D2786314E0110108E311E2686316F
:100DB000400169084101AB00400168084101AA00F7
:100DC000BD01BD0A400194130800F4008E311826BD
:100DD00086317C01911119129913803044018F00E2
:100DE0000D3090007C01A413911491100032003258
:100DF000003200327C019B149B104101BD0174083C
:100E00000319032F042F472F400194177C019017DB
:100E1000911111111115111191179B111B111B1516
:100E20001B1141013C03031D162F172F282F7C0196
:100E3000911519169917C03044018F000B3090009E
:100E40008E31962686318E31152686317C01A41787
:100E50008E311226863141013A08F200F3017209FF
:100E6000F0007309F1008E31C22686314E01101058
:100E70008E310F268631400169084101AB004001E7
:100E800068084101AA00BD01BD0A40019413080091
:100E90004E01101C4C2F4D2F592F41013D03031DB6
:100EA000522F532F592F00308631812687314E0122
:100EB0001010400169084101AD004001680841017E
:100EC000AC000C308F315A2787314101480840016E
:100ED000E900410147084001E8003B308E31892696
:100EE00087310D30890B722F000041012D08400120
:100EF0006E02031D7F2F41012C0840016D02031873
:100F0000822F832F9E2F69086E02031D892F680888
:100F10006D0203188C2F8D2F9E2F41013D03031D61
:100F2000922F932F9E2F3B08031D972F982FA32FAF
:100F30000130BB008E312A268731A32F4101BB012E
:100F40008E312D26873108008E314E2687318F3124
:100F5000D62787318E31722687318E313026873100
:100F60008E31682687318E31F82687318E31A4265E
:100F700087318F31752787318E31E42687318E3165
:100F8000B22687318E31462687318E31D32687317E
:100F90008E31342687318F312627873108008731FB
:100FA000A42787318F319227873129304101CD0025
:100FB0009630CC007F30890BDB2FCC0BDB2FCD0B99
:100FC000DB2F8B170B1705304101CD000F30CC0004
:100FD000F130890BE92FCC0BE92FCD0BE92F013034
:100FE000863181268731873148278731F32F803139
:100FF0002528FE0012001E00FE0BFA2F0034080008
:101C18004E019112080044010E14080044010E10F0
:101C2800080045018E17080045018E1308004B0176
:101C38009E13080044010E14080044010E10080009
:101C480045018E17080045018E1308004B019E17A9
:101C580008004B019E130800843052018C000800D4
:101C6800883052018E0002308F0008004101480878
:101C7800CF004708CE000800640080010131890BBD
:101C8800412E0034F03041019E009B019C0101303F
:101C98009D0008004F0196019701980199019A014A
:101CA8009B010800400167084B019D004001660840
:101CB8004B019C0008000034003429344334E834D4
:101CC800033401340034013490305301940002305D
:101CD80095000330960005309700080060305101E8
:101CE8008D008F0191010630930090019201080048
:101CF800F1007108F000F00DF00D41011D087006AB
:101D0800033970069D001D1408004101C8004808E9
:101D1800C700C70DC70D1D084706033947069D00B4
:101D28001D1408000D30450190008F0191012730E6
:101D38008D008C014E019010B03045018E000800D6
:101D48000D30450190008F01910127308D008C01E5
:101D58004E019010B03045018E0008007C01AF01A3
:101D68000E30B000B101B201B3010230B40002304C
:101D7800B500B601B7018030AE00080044010E1D61
:101D8800C62EC72ECE2E0E1071088D0070088C003E
:101D98000E14D22E71088D0070088C0008007C018A
:101DA800A5011A30A6000530A700A801A901013035
:101DB800AA000830AB00AC01AD018030A4000800D7
:101DC80088307C01910017309200173093000E3054
:101DD80094001B30950002309600970198019030CE
:101DE80099000330900008007C019B010D309C0095
:101DF8000D309D000D309E000D309F000230A00078
:101E0800A101A201A30183309A004E0191129B16F1
:101E1800080044010E1D112F122F1D2F0E10410115
:101E2800480844018D004101470844018C000E1404
:101E3800252F4101480844018D004101470844010C
:101E48008C000800803044018F000D309000033072
:101E58009100FF308D00D8308C004E0110104401E5
:101E68000D084101B90044010C084101B8003530A2
:101E780044018E000800F3007308F200F20DF20D21
:101E880041011D087206033972069D001D140D30AC
:101E9800890B4C2F000041019D149D18542F552F7C
:101EA800512F1C08F1001B08F00008004101CA006E
:101EB8004A08C900C90DC90D1D0849060339490654
:101EC8009D001D140D30890B672F000041019D14E2
:101ED8009D186F2F702F6C2F1C08C8001B08C70097
:101EE800080056304B019F00FF309D0083309C0056
:101EF8001D084001E7004B011C084001E6004E01A7
:101F08008C129616FF304101C7000730C8008E3189
:101F18003A268F3190304B019E0008000030863100
:101F280081268F318E3156268F314E018C12530106
:101F380094177C0197154E018E1052010F08E03955
:101F480001388F003530890BA72F00004E01911200
:101F58000E108E104101A801A901BC010800F8006B
:101F6800F401F5017008F200F3017208F600730835
:101F7800F700781CC02FC12FC52F7608F407770803
:101F8800F53D0130F635F70D890BC62F0310F80C17
:101F98007808031DD02FD12FBD2F7508F1007408C4
:101FA800F00008004001980199019A013730920029
:101FB800F0309300BF3094001F307E01CE003030E7
:101FC800C3001730B800C401B901CF01BA01C50177
:101FD800D0011F30BB00C6013F30D1003F30BC00EC
:101FE800C7013F30D20017307D01BB0002307E01AF
:081FF800A6000130A70008005B
:020000040001F9
:0A000E00EC3FFF3F9F3FFF3FFF3F25
:00000001FF
