:0400000080312528FE
:100008007E1480314E01961E0A280B2813288C1E58
:100018000E280F2813288231BF22803123280B1F76
:100028001628172823289B1E1A281B282328911EC8
:100038001E281F28232884312324803123287E105A
:10004800090080312728023084008430850012009E
:10005800C0001200C1001200C2001200C30012004A
:10006800C400F001F101F201F301F4012030840031
:100078000030850017308331EA2380317E1040013B
:1000880082314A2A71084001A5007008A4000C308A
:100098008231DB2280317608F1007508F0003B30B0
:1000A8008331B92380310D30890B58280000003086
:1000B80040014302653003194202031C6428652885
:1000C80069286430C2000030C30025084302031DBC
:1000D8006F2824084202031872287328862871089A
:1000E8004302031D79287008420203187C287D28E2
:1000F80086287403031D81288228862800308131D0
:100108006721803140012E082F0403198C288D287F
:1001180007292D08AB002C08AA0002308231DB2207
:10012800803176084001AD007508AC003B30833162
:10013800B92380310D30890B9F2800000130400120
:100148002B02903003192A020318AB28AC28BE28CA
:1001580001302D02903003192C020318B428B52859
:10016800BE287403031DB928BA28BE28003081317F
:100178006721803111308231DB22803176084001DD
:10018800A1007508A0003B308331B92380310D30C0
:10019800890BCC280000013040012102FB300319F3
:1001A80020020318D828D928EB287403031DDD285A
:1001B800DE28EB2800307102063003197002031C98
:1001C800E628E728EB2800308131672180310230AA
:1001D80040012102F93003192002031CF428F528F4
:1001E80007297403031DF928FA280729003071022A
:1001F800063003197002031C02290329072900305D
:1002080081316721803108004001BB0084310B2413
:1002180081317C01911119129913803044018F00AA
:100228000D3090007C01A41391149110003200321B
:10023800003200327C019B149B10F40140013B0802
:10024800031927292829662994177C0190179111E9
:1002580011111115111191179B111B111B151B1150
:1002680040013503031D39293A294B297C01911591
:1002780019169917C03044018F000B309000833154
:100288009D23813184310E2481317C01A41784316E
:100298001124813140013408B900BA013909B70085
:1002A8003A09B8008331292381314E011010843175
:1002B8001424813171084001A3007008A200F401E0
:1002C800F40A94130800F9008431172481317C0161
:1002D800911119129913803044018F000D3090004C
:1002E8007C01A413911491100032003200320032C4
:1002F8007C019B149B10F401790803198429852932
:10030800C429400194177C019017911111111115FE
:10031800111191179B111B111B151B11400135035E
:10032800031D97299829A9297C0191151916991750
:10033800C03044018F000B3090008331AB238131F2
:1003480084311A2481317C01A41784311D24813120
:1003580040013408F700F8017709F5007809F6003C
:1003680083317C2381314E01101084312024813166
:1003780071084001A3007008A200F401F40A941364
:1003880008004E01101CC929CA29D5297403031D68
:10039800CE29CF29D52900308131082181314E015C
:1003A8001010033040012F02E83003192E02031CFD
:1003B800DE29DF291E2AAE01AF017C018F1DE52948
:1003C800E629F5297403031DEA29EB29F529AB0170
:1003D80045018C017C01A5010330A500A501083069
:1003E800AB00400123087102031DFC29220870029A
:1003F800031CFF29002A102A0030230202300319A7
:1004080022020318082A092A102A22087002A800C2
:100418002308713BA900142A7108A9007008A800D4
:100428002908BD002808BC00BD36BC0C3C08A60045
:100438003D08A70008008331DA2382318231742213
:1004480082318331C62382318331D0238231843192
:100458000724823183314223823183319D238231C3
:100468008231F622823183315723823183318D23C1
:1004780082318331E223823183316B2382318331AC
:10048800F6238231833110238231080082311F2202
:10049800823182319E22823129304001BF0096305C
:1004A800BE007F30890B562ABE0B562ABF0B562A30
:1004B8008B170B1705304001BF000F30BE00F1301D
:1004C800890B642ABE0B642ABF0B642A0130813170
:1004D800082182318131C52182316E2A8031252857
:1004E8004001980199019A0137309200F030930049
:1004F800BF3094001F307E01CE003030C30007307B
:10050800B800C401B901CF01BA01C501D0011F303B
:10051800BB00C6013F30D1003F30BC00C7013F30AF
:10052800D20017307D01BB0002307E01A6000130E9
:10053800A700080000308131082182318331FC2373
:1005480082314E018C12530194177C0197154E018C
:100558008E1052010F08E03902388F003530890BB0
:10056800B32A00004E0191120E108E104001AE0108
:10057800AF01B50108004E018C1273084B019D00B4
:1005880072089C004001450846040319CC2ACD2A6C
:10059800D22A46088A0045080A008231803146205E
:1005A800823101304001AE070030AF3D0800F8004D
:1005B8007808F700F70DF70D41011D087706033994
:1005C80077069D001D140D30890BE82A00004101B3
:1005D8009D149D18F02AF12AED2A1C08F6001B0824
:1005E800F500080056304B019F00FF309D00C230D7
:1005F8009C001D08F3001C08F2004E018C12961690
:1006080026304001B7000430B8008331F02382312E
:1006180090304B019E000800803044018F000D305F
:10062800900003309100FF308D00D8308C004E01CF
:10063800101044010D084001B30044010C084001AA
:10064800B200353044018E00080044010E1D2D2BE8
:100658002E2B392B0E104001380844018D00400123
:10066800370844018C000E14412B4001380844011E
:100678008D004001370844018C0008007C019B0173
:100688000D309C000D309D000D309E000D309F00F8
:100698000230A000A101A201A30183309A004E01FB
:1006A80091129B16080088307C0191001730920047
:1006B800173093000E3094001B30950002309600DE
:1006C80097019801903099000330900008007C0150
:1006D800A5011A30A6000530A700A801A90101301C
:1006E800AA000830AB00AC01AD018030A4000800BE
:1006F80044010E1D802B812B882B0E1076088D004F
:1007080075088C000E148C2B76088D0075088C00EB
:1007180008007C01AF010E30B000B101B201B30195
:100728000230B4000230B500B601B7018030AE0027
:1007380008000D30450190008F01910127308D0090
:100748008C014E019010B03045018E0008000D302C
:10075800450190008F01910127308D008C014E01D9
:100768009010B03045018E000800F6007608F500BC
:10077800F50DF50D41011D087506033975069D0037
:100788001D140800603051018D008F019101063061
:1007980093009001920108009030530194000230B8
:1007A8009500033096000530970008004F01960128
:1007B8009701980199019A019B010800F0304101C5
:1007C8009E009B019C0101309D000800640080018F
:1007D8000131890BEB2B003440013808C60037087B
:1007E800C5000800883052018E0002308F000800D2
:1007F80073084B019D0072089C000800E83403341C
:10080800643400340234843052018C0008004501FD
:100818008E13080045018E17080044010E100800C9
:1008280044010E14080045018E13080045018E1777
:10083800080044010E10080044010E1408004E017F
:06084800911208000800F7
:020000040001F9
:0A000E00EC3FFF3F9F3FFF3FFF3F25
:00000001FF
