:0400000080312528FE
:1000060008007E1480314E01961E0A280B281328FC
:100016008C1E0E280F28132886314126803123286E
:100026000B1F1628172823289B1E1A281B2823284F
:10003600911E1E281F2823289731852780312328C3
:100046007E10090080312728E8308400973085002B
:10005600E63086000030870007308731FA27803186
:100066002A3084008A3085002030860001308700DF
:100076002B308731FA278031EE01EF01C83084003A
:10008600003085001E309731D42780314201DC01D3
:10009600DD01DE01DF01E001E1017E1040018A3170
:1000A600002A400141088039CB004135D100C01FEC
:1000B6005D285E285F2851145108031963286428B7
:1000C6007328510A031D6828692871280030C10069
:1000D6000030C0000030BF000030BE00C0177B28D3
:1000E6000030C1000030C0000030BF000030BE004C
:1000F60045088039C6004608CB064535CC00C41FE6
:100106008528862887284C144C0803198B288C28A8
:100116009B284C0A031D9028912899280030C50079
:100126000030C4000030C3000030C200C417A3284A
:100136000030C5000030C4000030C3000030C200EB
:100146004C080319A728A828AD285108031DAC2878
:10015600AD28B6280030C1000030C0000030BF0016
:100166000030BE008E2A3E08F000440889319021F6
:10017600803171084001D7007008D6005608C600C5
:10018600C701C801C9014908D0004808CF0047087F
:10019600CE004608CD005708C600C701C801C901F0
:1001A6004908D5004808D4004708D3004608D200BD
:1001B6003F08F000430889319021803171084001E1
:1001C600D7007008D6005608C600C701C801C90185
:1001D6004608CD074708CE3D4808CF3D4908D03DE3
:1001E6005708C600C701C801C9014608D207470813
:1001F600D33D4808D43D4908D53D4008F0004208A3
:1002060089319021803171084001D7007008D600ED
:100216005608C600C701C801C9014608CD074708E8
:10022600CE3D4808CF3D4908D03D5708C600C70116
:10023600C801C9014608D2074708D33D4808D43D3E
:100246004908D53D0830CD35CE0DCF0DD00D890BE3
:1002560026293F08F0004208893190218031710833
:100266004001D7007008D6005608CD075708CE3D86
:100276000030CF3DD03D3E08F00043088931902143
:10028600803171084001D7007008D6005608CD07A6
:100296005708CE3D0030CF3DD03D0830CD35CE0D90
:1002A600CF0DD00D890B51293E08F0004208893147
:1002B6009021803171084001D7007008D600560899
:1002C600CD075708CE3D0030CF3DD03D3F08F0006A
:1002D600440889319021803171084001D7007008A7
:1002E600D6005608D2075708D33D0030D43DD53D39
:1002F6004008F0004308893190218031710840019F
:10030600D7007008D6005608D2075708D33D0030EC
:10031600D43DD53D4008F000440889319021803114
:1003260071084001D7007008D6005608C600570865
:10033600C700C801C9010830C635C70DC80DC90DAB
:10034600890B9F294608D2074708D33D4808D43D64
:100356004908D53D4D08C6004E08C7004F08C800DD
:100366005008C9001830C936C80CC70CC60C890B12
:10037600B6294608D2074708D33D4808D43D490860
:10038600D53D0830CD35CE0DCF0DD00D890BC52905
:1003960051084C07C600C701C70D4608823ED60065
:1003A600FF30473DD700EE290130D235D30DD40DAD
:1003B600D50D890BD829D01FE129E229E32952144A
:1003C6000130CD35CE0DCF0DD00D890BE429FF3090
:1003D600D607FF30D73DD41FF129F229D729CC0102
:1003E600D01FF629F729132AFF304D05C600FF3026
:1003F6004E05C700FF304F05C8007F305005C900C5
:10040600490848044704460403190A2A0B2A0E2AF7
:10041600CC01CC0A132A521C112A122A132A0B2A9F
:100426004C080319172A182A402A0130D20700302F
:10043600D33D0030D43D0030D53D551C232A242A17
:10044600402A5208C6005308C7005408C800550879
:10045600C9000130CA00C937C80CC70CC60CCA0B84
:100466002E2A4908D5004808D4004708D300460874
:10047600D2000130D6070030D73D5708803AC60073
:1004860080304602031D492AFF305602031C4C2ABF
:100496004D2A572A7F304001D5008030D4000030E5
:1004A600D3000030D200822A40015708803AC600A5
:1004B60080304602031D612A013056020318642A61
:1004C600652A702A00304001D5000030D400003083
:1004D600D3000030D200CB01822A40015608D10059
:1004E600FF30D205FF30D3057F30D4050030D50567
:1004F600511C7E2A7F2A802AD4175136D5004B08F4
:10050600C6004608D5045508C1005408C000530863
:10051600BF005208BE00080040012D088039BA000D
:100526002D35BC00AC1F982A992A9A2A3C143C08FF
:1005360003199E2A9F2AAF2A3C0A031DA32AA42A2E
:10054600AC2A0030AD000030AC000030AB0000300B
:10055600AA00AC17AD01B72A0030AD000030AC00E0
:100566000030AB000030AA0031088039BB003B08E0
:100576003A060319BF2AC02AC12A3A173135BB00E9
:10058600B01FC62AC72AC82A3B143B080319CC2A1F
:10059600CD2ADD2A3B0A031DD12AD22ADA2A0030C7
:1005A600B1000030B0000030AF000030AE00B01730
:1005B600B101E52A0030B1000030B0000030AF00D4
:1005C6000030AE003C083B020318EA2AEB2A112B46
:1005D6003A1FEE2AEF2AF32A8030B2003208BA0612
:1005E6003C08BD003B08BC003D08BB002A08BD0016
:1005F6002E08AA003D08AE002B08BD002F08AB0050
:100606003D08AF002C08BD003008AC003D08B00026
:100616002D08BD003108AD003D08B100BD013B0805
:10062600B200B3013308B5003C083202B400031C23
:10063600B5033508803AB60080303602031D252BF7
:100646001A303402031C282B292B5B2B40012D0862
:100656002C042B042A04031D312B332B0130342B9D
:100666000030BD000030AD000030AC000030AB0003
:100676000030AA003B08BC00622B3D1C432B442BD8
:10068600482B3D360138BD004A2B0310BD0C2A1CF1
:100696004D2B4E2B4F2BBD170130B200AD37AC0C96
:1006A600AB0CAA0CB20B512B0130B2003208BC07BE
:1006B60040013B083C02031C612B622B402B3A1B7A
:1006C600652B662B9C2B3C08031D6A2B6B2B742B0E
:1006D6000030AD000030AC000030AB000030AA00A6
:1006E600962C2E08AA072F08AB3D3008AC3D3108E2
:1006F600AD3D2D1C7F2B802B282C3D1C832B842B62
:10070600882B3D360138BD008A2B0310BD0C2A1CF0
:100716008D2B8E2B8F2BBD170130B200AD37AC0C55
:10072600AB0CAA0CB20B912B0130B2003208BC07FD
:10073600282C2D08803AB2003108803A3202031D77
:10074600AE2B30082C02031DAE2B2F082B02031DE7
:10075600AE2B2E082A020318B12BB22BEA2BFF3040
:10076600B200FF30B300FF30B400FF30B5002A08F6
:100776002E02B6002B082F3BB7002C08303BB800E2
:100786002D08313BB9003608B2073708B33D3808A3
:10079600B43D3908B53D3508AD003408AC00330822
:1007A600AB003208AA008030B2003208BA06BD0992
:1007B600BD0A3D08031DE02BE12BF22B0130AA07F1
:1007C6000030AB3D0030AC3D0030AD3DF22B2E0885
:1007D600AA022F08AB3B3008AC3B3108AD3B2D08D5
:1007E6002C042B042A04031DF92BFA2B242C3D0878
:1007F600031DFE2BFF2B242C0030AD000030AC0077
:100806000030AB000030AA00962C0130AA35AB0DA3
:10081600AC0DAD0D890B092CBD1F122C132C142CFD
:100826002A143D1C172C182C1B2C0314BD0D1D2C33
:100836000310BD0D3C080319212C222C242C013059
:10084600BC02AC1F272C282C082CBB01BD1F2C2C4E
:100856002D2C3B2C3D087F390319322C332C362C9A
:10086600BB01BB0A3B2C2A1C392C3A2C3B2C332CC3
:100876003B0803193F2C402C6D2C0130AA07003091
:10088600AB3D0030AC3D0030AD3D2D1C4B2C4C2C0F
:100896006D2C2A08B2002B08B3002C08B4002D08D2
:1008A600B5000130B600B537B40CB30CB20CB60BBC
:1008B600562C3508AD003408AC003308AB003208BE
:1008C600AA003C0A0319682C692C6D2C0130B20071
:1008D6003208BC073C0A0319712C722C772C3C0891
:1008E600031D762C772C852C0030AD000030AC0033
:1008F6000030AB000030AA003C08031D832C842C7A
:10090600852CBA013C1C882C892C8B2CAC178F2C7F
:100916007F30B2003208AC053C36AD00BA1F942CCD
:10092600952C962CAD170800770880394001A40055
:100936007735AB00F61FA02CA12CA22C2B142B086C
:100946000319A62CA72CB72C2B0A031DAB2CAC2CF9
:10095600B42C0030F7000030F6000030F50000300F
:10096600F400F617F701BF2C0030F7000030F60050
:100976000030F5000030F40073088039F80078087C
:10098600A4067335AC00F21FC92CCA2CCB2C2C1430
:100996002C080319CF2CD02CE02C2C0A031DD42CA8
:1009A600D52CDD2C0030F3000030F2000030F100D1
:1009B6000030F000F217F301E82C0030F3000030AD
:1009C600F2000030F1000030F00073087204710488
:1009D6007004031DEF2CF02C092D0030F7000030B9
:1009E600F6000030F5000030F4008030F6047F3069
:1009F600F7042408F8007808F7047708F300760867
:100A0600F2007508F1007408F000402E2B08031D53
:100A16000D2D0E2D172D0030F3000030F2000030A2
:100A2600F1000030F000402E2B08F800F90179089B
:100A3600FB002C087802FA00031CFB037A087F3EB1
:100A4600A50000307B3DA6007708A3007608A2002B
:100A56007508A1007408A0000030F7000030F60009
:100A66000030F5000030F4000030AA000030A90084
:100A76000030A8000030A700AC017F2D2C08031918
:100A8600452D462D602D0130A035A10DA20DA30DDB
:100A9600890B472D0130F435F50DF60DF70D890B51
:100AA6004E2DAA1F572D582D592D74140130A735D8
:100AB600A80DA90DAA0D890B5A2D73082302031D33
:100AC6006E2D72082202031D6E2D71082102031D70
:100AD6006E2D70082002031C712D722D7B2D2A1796
:100AE6007008A0027108A13B7208A23B7308A33BE1
:100AF6000130F8007808AC071A302C02031C842D4C
:100B0600852D412D230822042104200403198C2D50
:100B16008D2DA62D2714A62D0130F435F50DF60DD5
:100B2600F70D890B902DAA1F992D9A2D9B2D7414C4
:100B36000130A735A80DA90DAA0D890B9C2DFF30F4
:100B4600A507FF30A63DF61FA92DAA2D8F2DAC01B6
:100B5600AA1FAE2DAF2DCB2DFF302705F800FF3095
:100B66002805F900FF302905FA007F302A05FB0029
:100B76007B087A04790478040319C22DC32DC62D87
:100B8600AC01AC0ACB2D741CC92DCA2DCB2DC32D9F
:100B96002C080319CF2DD02DF82D0130F407003085
:100BA600F53D0030F63D0030F73D771CDB2DDC2DA2
:100BB600F82D7408F8007508F9007608FA00770829
:100BC600FB000130FC00FB37FA0CF90CF80CFC0BAF
:100BD600E62D7B08F7007A08F6007908F500780814
:100BE600F4000130A5070030A63D2608803AF8003B
:100BF60080307802031D012EFF302502031C042ECF
:100C0600052E122EFF304001A5000030A600003050
:100C1600F7000030F6000030F5000030F400400127
:100C26002608803AF80080307802031D1C2E013019
:100C3600250203181F2E202E2C2E4001A501A601E9
:100C46000030F7000030F6000030F5000030F40008
:100C5600A40140012508AB002B1C322E332E352E65
:100C6600F617392E7F30F8007808F6052B36F70090
:100C76002408F8007808F704002D08004E018C12AD
:100C860040016F084B019D0040016E084B019C001E
:100C960042015A085B040319512E522E572E5B0847
:100CA6008A005A080A008631420148084001AD0010
:100CB600420147084001AC00420146084001AB0032
:100CC600420145084001AA0041014F084001B10018
:100CD60041014E084001B00041014D084001AF00FE
:100CE60041014C084001AE0082318F22863140011D
:100CF6002D084101CF0040012C084101CE004001E2
:100D06002B084101CD0040012A084101CC000C30DE
:100D160088313120863197318B2786319731DA2712
:100D26008631003A0319982E992E912E9731B027C5
:100D3600863171084101DB007008DA002030F100CD
:100D46009030F2008A31AF22863141015A08FA000A
:100D56005B08FB00FC01FD0100308E3183268631E5
:100D66007D084101C7007C08C6007B08C5007A08DB
:100D7600C40047084001ED00410146084001EC006F
:100D8600410145084001EB00410144084001EA00E9
:100D960087317027863141015B084001D900410146
:100DA6005A084001D80041014F084001DD004101C9
:100DB6004E084001DC0041014D084001DB004101C5
:100DC6004C084001DA008D31F225863140015B087E
:100DD6004101CB0040015A084101CA0040015908AF
:100DE6004101C900400158084101C8002B30F100FB
:100DF6009030F2008A31AF22863141014B08400122
:100E0600ED0041014A084001EC004101490840015A
:100E1600EB00410148084001EA008731702786311E
:100E260041014B08F3004A08F2004908F10048085E
:100E3600F0006908F7006808F6006708F50066081C
:100E4600F4008D316825863103182A2F2B2F362F73
:100E560041016B085B02031D322F6A085A02031810
:100E6600352F362F6F2F97318827863141014B0852
:100E7600F3004A08F2004908F1004808F000690842
:100E8600F7006808F6006708F5006608F4008D317B
:100E960068258631031C502F512F6F2F1530F10016
:100EA6009030F2008A31AF22863141014F0840016D
:100EB600ED0041014E084001EC0041014D084001A2
:100EC600EB0041014C084001EA008731702786316A
:100ED60000308B31C8238631080040016D08F300CD
:100EE6006C08F2006B08F1006A08F0008C31F824F7
:100EF600873170084101A000A101A201A3012308C6
:100F0600FD002208FC002108FB002008FA00013041
:100F16008E31832687317D084001AD007C08AC0008
:100F26007B08AB007A08AA006D08B1006C08B00017
:100F36006B08AF006A08AE008B3126238731031C8D
:100F4600A52FA62FBD2FA430FA000A30FB004001C2
:100F56006D08F3006C08F2006B08F1006A08F000F7
:100F66008C31F824873170088C312C24873141016B
:100F7600C200CF2F40016D08DB006C08DA006B0859
:100F8600D9006A08D800A430DC000530DD008F31B6
:100F96002E2787314101C200C301E72F88315A202D
:100FA6008731003A0319D82FD92FD12F4101430891
:100FB600A43E860087010108883108208731013068
:100FC6004101A0002008C30742084302031CEC2F7E
:100FD600ED2FD12F88315A208731003A0319F42F8B
:100FE600F52FED2F0A308831082087310800FE00E2
:100FF60012001E00FE0BFB2F00344F0196019701D5
:10100600980199019A019B010800F0004E010F1EFC
:101016000D280E280928700842019A000800903011
:101026005301940002309500033096000530970076
:101036000800603051018D008F0191010630930048
:101046009001920108004201CB004E010F1E2C2890
:101056002D28282842014B089A000800F100710843
:10106600F000F00DF00D41011D0870060339700601
:101076009D001D1408000D30450190008F0191015F
:1010860027308D008C014E019010B03045018E0046
:1010960008000D30450190008F01910127308D0029
:1010A6008C014E019010B03045018E000800F00111
:1010B6004E010F1E5F286028672842019E1E642885
:1010C60065286728F001F00A700808004201CC0084
:1010D6004C08CB00CB0DCB0D41011D0842014B0640
:1010E60003394B0641019D001D1408007C01AF0128
:1010F6000E30B000B101B201B3010230B4000230CB
:10110600B500B601B7018030AE00080044010E1DDF
:101116008D288E2895280E1071088D0070088C0079
:101126000E14992871088D0070088C000800420181
:10113600CB014E010F1EA028A128A82842019E1E01
:10114600A528A628A828CB01CB0A42014B080800EF
:101156007C01A5011A30A6000530A700A801A90147
:101166000130AA000830AB00AC01AD018030A4000C
:10117600080088307C0191001730920017309300E8
:101186000E3094001B3095000230960097019801AE
:10119600903099000330900008007C019B010D30CF
:1011A6009C000D309D000D309E000D309F000230DA
:1011B600A000A101A201A30183309A004E01911261
:1011C6009B16080044010E1DE928EA28F5280E1092
:1011D60042014C0844018D0042014B0844018C0039
:1011E6000E14FD2842014C0844018D0042014B08B3
:1011F60044018C000800803044018F000D309000BF
:1012060003309100FF308D00D8308C004E01101055
:1012160044010D084101DF0044010C084101DE00D4
:10122600353044018E00080000308C31912489311C
:10123600530194177C0197154E018E1052010F0829
:10124600E03901388F003530890B272900004E011F
:1012560091120E108E104201DE01DF014101E20102
:10126600080056304B019F00FF309D0083309C00E4
:101276001D084001EF004B011C084001EE004E0125
:101286008C12961603304201CB000030CC00973109
:10129600CE27893190304B019E000800F2000830BD
:1012A600F300F4017208F1000730F136890B582972
:1012B60074357104F4000310F20D70087402031CF7
:1012C6006529662968297008F4020130F302031DB6
:1012D6006D296E2955297408080080304001C10621
:1012E6004508AD004408AC004308AB004208AA001C
:1012F6004108B1004008B0003F08AF003E08AE000C
:1013060082318F22893140012D08C1002C08C0008E
:101316002B08BF002A08BE000800F800F401F501FA
:101326007008F200F3017208F6007308F700781CE3
:101336009D299E29A2297608F4077708F53D0130F4
:10134600F635F70D890BA3290310F80C7808031D51
:10135600AD29AE299A297508F1007408F000080035
:10136600083042019F0080309D0024309E004430AA
:101376009B009C010030CB000030CC009731C22787
:10138600893100304201CB000030CC009731C827AC
:10139600893100304201CB000030CC009731BC27A8
:1013A60089314101E5010800F200F40170080319D2
:1013B600DD29DE29FE29F301F30AE7290310F00DE2
:1013C6000130F1007108F307F01FEA29EB29E12942
:1013D6000310F40D70087202031CF229F329F62992
:1013E6007008F20274140310F00C0130F302031DAE
:1013F600FD29FE29EB29740808008A3181228A31E9
:10140600893117218A3129304201D3009630D20022
:101416007F30890B0C2AD20B0C2AD30B0C2A8B1784
:101426000B1705304201D3000F30D200F130890B83
:101436001A2AD20B1A2AD30B1A2A01308C3191247C
:101446008A318B3175238A31242A8031252830341C
:101456003134323433343434353436343734383442
:1014660039344134423443344434453446344734C1
:10147600483449344A344B344C344D344E344F346A
:10148600503451345234533454345534563457341A
:10149600583459345A3400340034003480343F34DC
:1014A600E83403344001980199019A0137309200DB
:1014B60070309300BF3094001F307E01CE00303074
:1014C600C3001730B800C401B901CF01BA01C50184
:1014D600D0011F30BB00C6013F30D1003F30BC00F9
:1014E600C7013F30D20017307D01BB000F307E01AF
:1014F6009F000230A6000130A700080088310020B6
:101506008A318A3155228A3188311C208A319731B5
:10151600AC278A31883112208A318831D0208A312D
:1015260088314C208A31893134218A318831BC2076
:101536008A31883179208A319731EF278A3188318B
:10154600AB208A319731B6278A318831FE208A311D
:101556008931B3218A310800F601CC2A88315A2014
:101566008A31003A0319B82AB92AB12A7208F40056
:101576007108F30076087307840074080318740A68
:1015860085000008883108208A310130F30073088D
:10159600F6077208F4007108F300760873078400F2
:1015A60074080318740A85001200031DDB2ADC2A5E
:1015B600B12A88315A208A31003A0319E32AE42AEB
:1015C600DC2A0A30883108208A3108004201D1011C
:1015D600092B88319A208A31003A0319F32AF42A12
:1015E600EC2A42014D08CF004C08CE0051084E07A8
:1015F60084004F0803184F0A85000008883126200A
:101606008A3101304201CE004E08D1074D08CF0085
:101616004C08CE0051084E0784004F0803184F0AA5
:1016260085001200031D182B192BEC2A88319A20ED
:101636008A31003A0319202B212B192B0A308831C5
:1016460026208A310800003040012A05B200003009
:101656002B05B30080302C05B4007F302D05B50076
:101666003508340433043204031D3A2B3B2B432B39
:101676000030AD000030AC000030AB000030AA00F6
:1016860000302E05B20000302F05B3008030300543
:10169600B4007F303105B500350834043304320414
:1016A600031D562B572B5F2B0030B1000030B000C6
:1016B6000030AF000030AE0031082D06031D6D2B43
:1016C60030082C06031D6D2B2F082B06031D6D2BD2
:1016D6002E082A060319702B712B732B0310742BFB
:1016E600031408000C30883169208B3197319A2712
:1016F6008B319731E1278B31003A0319832B842BE9
:101706007C2B9731F7278B3142014C084101DB00D6
:1017160042014B084101DA000D30890B902B000085
:1017260000304101CF000030CE000030CD00003047
:10173600CC000030CB000030CA000030C9000030B9
:10174600C8005B086B02031DAA2B5A086A0203181D
:10175600AD2BAE2BC62B6403031DB22BB32BC62BAE
:101766006108031DB72BB82BC72B0130E1000030F1
:101776004201CC009030CD008A31E9228B3197317D
:101786009D278B31C72BE1010800F400973197277D
:101796008B317C01911119129913803044018F000D
:1017A6000D3090007C01A413911491100032003288
:1017B600003200327C019B149B104101E401740845
:1017C6000319E62BE72B2B2C400194177C0190176D
:1017D600911111111115111191179B111B111B1547
:1017E6001B1141016203031DF92BFA2B0B2C7C0103
:1017F600911519169917C03044018F000B309000CF
:1018060088313E208B31973194278B317C01A41788
:10181600973191278B3141016008F200F30172097B
:10182600F0007309F100883189208B314E011010C8
:1018360097318E278B3141015B084201E10041015E
:101846005A084201E0004101E401E40A4001941310
:1018560008004001C6002030860001308700203095
:101866008400003085002530FC0016001A00FC0BB1
:10187600382CC70147087A07FC007C0886008701D8
:101886007B08F0004608893151218C31203E8400C6
:101896008501000881000130FC007C084001C70773
:1018A6007B08F00046088931D7218C314001C600FB
:1018B6004608031D5F2C602C3D2CC8014708FF3EDF
:1018C600C900892C48087A07FC007C088600870135
:1018D6000108C50048087A07FC007C0886008701D5
:1018E60049087A07FD007D0884008501000881000B
:1018F60049087A07FC007C088600870145088100B4
:101906000130FC007C08C8070130C90249084802BA
:10191600031C8E2C8F2C652C470808004201CF0033
:101926009731A9278C317C019111191299138030B6
:1019360044018F000D3090007C01A4139114911086
:1019460000320032003200327C019B149B104101B0
:10195600E40142014F080319B12CB22CF72C4001C7
:1019660094177C01901791111111111511119117EE
:101976009B111B111B151B1141016203031DC42C76
:10198600C52CD62C7C01911519169917C030440127
:101996008F000B30900088314C208C319731A62770
:1019A6008C317C01A4179731A3278C314101600843
:1019B6004201CD00CE014D09CB004E09CC00883145
:1019C600E5208C314E0110109731A0278C31410152
:1019D6005B084201E10041015A084201E000410171
:1019E600E401E40A4001941308000310720D730D1C
:1019F600F9007908031D002D012D0A2D0030F30092
:101A06000030F2000030F1000030F000672D700861
:101A1600F4007108F5007208F6007308F7001F302D
:101A2600F736F60CF50CF40C890B132D7408F80038
:101A3600F217FF30F005FF30F105FF30F2050030F8
:101A4600F3059630F902F91F292D2A2D422D790822
:101A5600803A973E0318302D312D322D012D01305D
:101A6600F336F20CF10CF00C890B332D0130F40037
:101A76007408F907031D402D412D322D572D2030B6
:101A86007902031C472D482D522D012D0130F035CA
:101A9600F10DF20DF30D890B4A2D0130F90279088B
:101AA600031D562D572D492D780803195B2D5C2DE6
:101AB600672DF009F109F209F309F00A0319F10A91
:101AC6000319F20A0319F30A080000307005F8003A
:101AD60000307105F90080307205FA007F30730519
:101AE600FB007B087A0479047804031D7B2D7C2D8A
:101AF600842D0030F3000030F2000030F100003099
:101B0600F00000307405F80000307505F9008030EB
:101B16007605FA007F307705FB007B087A047904A6
:101B26007804031D972D982DA02D0030F700003066
:101B3600F6000030F5000030F400F31FA32DA42DAD
:101B4600BC2D0030F8000030F9000030FA0080307B
:101B5600FB007008F8027108F93B7208FA3B73083B
:101B6600FB3B7B08F3007A08F2007908F10078085D
:101B7600F000F71FBF2DC02DD82D0030F800003023
:101B8600F9000030FA008030FB007408F80275088E
:101B9600F93B7608FA3B7708FB3B7B08F7007A08A7
:101BA600F6007908F5007808F4008030F3068030F6
:101BB600F70677087302031DEA2D76087202031DE5
:101BC600EA2D75087102031DEA2D740870020318C8
:101BD600ED2DEE2DF02D0310F12D031408003E30EF
:101BE6004001C1007930C000DB30BF002330BE00A9
:101BF600C030AD000530AC00C430AB003330AA00B5
:101C06005808FA005908FB00FC01FD0100308E312E
:101C160083268D317D084001B1007C08B0007B0829
:101C2600AF007A08AE0082318F228D3140012D0837
:101C3600C5002C08C4002B08C3002A08C200803146
:101C460054208D3140014108E9004008E8003F0872
:101C5600E7003E08E6006908C1006808C00067089A
:101C6600BF006608BE006908C5006808C4006708AA
:101C7600C3006608C200803154208D3140014108FE
:101C8600E5004008E4003F08E3003E08E200443077
:101C9600F3007A30F2000030F1000030F0005D0809
:101CA600F7005C08F6005B08F5005A08F40084317A
:101CB60097248D3173084001C1007208C000710875
:101CC600BF007008BE006508C5006408C40063084C
:101CD600C3006208C200803154208D3140014108A2
:101CE600E1004008E0003F08DF003E08DE00610832
:101CF600DB006008DA005F08D9005E08D80008003B
:101D06004001A40024080319892E8A2E9E2EFD1F49
:101D16008D2E8E2E9E2E7A09A6007B09A7007C09A1
:101D2600A8007D09A900A60A0319A70A0319A80A8B
:101D36000319A90AA62E7D08A9007C08A8007B081D
:101D4600A7007A08A6007D087C047B047A04031D9C
:101D5600AD2EAE2EB72E0030FD000030FC00003058
:101D6600FB000030FA002D2F9630A500C52E01305D
:101D7600A0002008A5070130A936A80CA70CA60CC0
:101D8600890BBF2EFE302905031DCA2ECB2EBA2E77
:101D9600DF2E0130A0002008A5070130A60700307D
:101DA600A73D0030A83D0030A93D0130A936A80C5A
:101DB600A70CA60C890BD92EFF302905031DE42E8E
:101DC600E52ECC2EEF2E0130A5020130A635A70D4B
:101DD600A80DA90D890BE92EA81BF22EF32EF92EBC
:101DE600023025020318F82EF92EE62E2518FC2EB1
:101DF600FD2E052FFF30A605FF30A7057F30A8056D
:101E0600FF30A9050310A50C2508A000A101A20119
:101E1600A3011830A035A10DA20DA30D890B0D2F1E
:101E26002008A6042108A7042208A8042308A90458
:101E3600240803191F2F202F252FFD1F232F242FA2
:101E4600252FA9172908FD002808FC002708FB00F4
:101E56002608FA00080040015B08F3005A08F20061
:101E66005908F1005808F0008C31F8248F317008B9
:101E76004001E3005C08FA000A30FB0063088C317D
:101E86002C248F314001E9005D0803194B2F4C2F9C
:101E9600F72F69085C07DE005E08860087012E3092
:101EA60081000130DE005E08E9076308DE00DF011D
:101EB600E001E1016108FD006008FC005F08FB002D
:101EC6005E08FA0001308E3183268F317D0840018D
:101ED600C1007C08C0007B08BF007A08BE005B0812
:101EE600C5005A08C4005908C3005808C200893101
:101EF60070218F3140014108E8004008E7003F08A3
:101F0600E6003E08E500E201F12F4130C100203035
:101F1600C0000030BF000030BE006808C50067087A
:101F2600C4006608C3006508C200803154208F31A2
:101F360040014108E8004008E7003F08E6003E0887
:101F4600E5006808F3006708F2006608F100650816
:101F5600F0008C31F8248F3170084001E4006908E4
:101F66005C07DE005E08860087016408303E81005B
:101F76000130DE005E08E9076408DE00DF01E001EB
:101F8600E1016108FD006008FC005F08FB005E08D7
:101F9600FA0001308E3183268F317D084001C10061
:101FA6007C08C0007B08BF007A08BE006808C50030
:101FB6006708C4006608C3006508C200893170213D
:101FC6008F3140014108E8004008E7003F08E6007D
:101FD6003E08E5000130DE005E08E2075D086202A9
:101FE600031CF62FF72F882F69085C07DE005E08B2
:101FF600860087018101690808004F34763465340C
:102006007234633475347234723465346E347434B5
:10201600203464346534743465346334743465341C
:102026006434003474347234693470342034743453
:1020360069346D3465343A340034413444344334BD
:102046005F34763461346C34753465343A34003434
:1020560069343234743420346134633463343A344A
:02206600003444
:102F0A004E01911208004B019E13080041019D14C5
:102F1A00080044010E14080044010E10080045017F
:102F2A008E17080045018E13080041019D14080000
:102F3A004B019E17080044010E14080044010E10AC
:102F4A00080045018E17080045018E1308008430D9
:102F5A0052018C00080041011C08F1001B08F00016
:102F6A000800883052018E0002308F0008004201AA
:102F7A004C08D5004B08D400080042014C08D9007F
:102F8A004B08D800080042014C08D7004B08D6006D
:102F9A00080042014C08DB004B08DA000800640014
:102FAA0080010131890BD52F0034031041019D1C8A
:102FBA0003140030093D0800031041019D1C03144D
:102FCA000030093D08009434DE34B7343F340D3400
:102FDA0000340134F03041019E009B019C01013014
:102FEA009D00080041011C084201CC0041011B0858
:062FFA004201CB000800BB
:020000040001F9
:0A000E00EC3FFF3F9F3FFF3FFF3F25
:00000001FF
