:0400000080312528FE
:100008007E1480314E01961E0A280B2813288C1E58
:100018000E280F28132882317622803123280B1FBF
:100028001628172823289B1E1A281B282328911EC8
:100038001E281F2823288331DA23803123287E10A5
:10004800090080312728B9308400833085001200E8
:10005800C0001200C1001200C2001200C30012004A
:10006800C400F001F101F201F301F4012030840031
:100078000030850017308331A12380317E10400184
:100088008231012A71084001A5007008A4000C30D3
:100098008231922280317608F1007508F0003B30F9
:1000A8008331702380310D30890B582800000030CF
:1000B80040014302733003194202031C6428652877
:1000C80069287230C2000030C30025084302031DAE
:1000D8006F2824084202031872287328862871089A
:1000E8004302031D79287008420203187C287D28E2
:1000F80086287403031D81288228862800308131D0
:100108001E21803140012E082F0403198C288D28C8
:10011800BE282D08AB002C08AA000230823192229A
:10012800803176084001AD007508AC003B30833162
:10013800702380310D30890B9F2800000130400169
:100148002B02903003192A020318AB28AC28BE28CA
:1001580001302D02903003192C020318B428B52859
:10016800BE287403031DB928BA28BE28003081317F
:100178001E21803108004001BB008331C223803139
:100188007C01911119129913803044018F000D30B0
:1001980090007C01A41391149110003200320032B7
:1001A80000327C019B149B10F40140013B080319A9
:1001B800DE28DF281D2994177C0190179111111151
:1001C8001115111191179B111B111B151B114001C2
:1001D8003503031DF028F12802297C019115191611
:1001E8009917C03044018F000B309000833154239D
:1001F80080318331C52380317C01A4178331C82322
:10020800803140013408B900BA013909B7003A0908
:10021800B8008231E02280314E0110108331CB23A7
:10022800803171084001A3007008A200F401F40AAB
:1002380094130800F9008331CE2381317C01911198
:1002480019129913803044018F000D3090007C0101
:10025800A4139114911000320032003200327C0154
:100268009B149B10F401790803193B293C297B292D
:10027800400194177C01901791111111111511115A
:1002880091179B111B111B151B1140013503031DF1
:100298004E294F2960297C01911519169917C030EC
:1002A80044018F000B309000833162238131833108
:1002B800D12381317C01A4178331D42381314001BA
:1002C8003408F700F8017709F5007809F60083315A
:1002D800332381314E0110108331D72381317108C6
:1002E8004001A3007008A200F401F40A9413080066
:1002F8004E01101C802981298C297403031D85292E
:1003080086298C2900308031BF2081314E011010A0
:10031800033040012F02E83003192E02031C9529EF
:100328009629D529AE01AF017C018F1D9C299D29F5
:10033800AC297403031DA129A229AC29AB014501ED
:100348008C017C01A5010330A500A5010830AB0094
:10035800400123087102031DB32922087002031CFF
:10036800B629B729C729003023020230031922020F
:100378000318BF29C029C72922087002A80023082A
:10038800713BA900CB297108A9007008A8002908A9
:10039800BD002808BC00BD36BC0C3C08A6003D08C2
:1003A800A700080083319123813182312B228131CA
:1003B80083317D2381318331BE238131833187238A
:1003C80081318231F9228131833154238131823163
:1003D800AD22813183310E23813183314423813130
:1003E8008331992381318331222381318331AD23B4
:1003F80081318231C722813108008131D621823191
:1004080082315522823129304001BF009630BE002A
:100418007F30890B0D2ABE0B0D2ABF0B0D2A8B17B7
:100428000B1705304001BF000F30BE00F130890BBB
:100438001B2ABE0B1B2ABF0B1B2A01308031BF2091
:10044800823181317C218231252A80312528400161
:10045800980199019A0137309200F0309300BF302B
:1004680094001F307E01CE003030C3001730B80032
:10047800C401B901CF01BA01C501D0011F30BB00C9
:10048800C6013F30D1003F30BC00C7013F30D20029
:1004980017307D01BB0002307E01A6000130A700A5
:1004A800080000308031BF2082318331B32382318C
:1004B8004E018C12530194177C0197154E018E1032
:1004C80052010F08E03901388F003530890B6A2A4C
:1004D80000004E0191120E108E104001AE01AF01C6
:1004E800B50108004E018C1273084B019D0072087B
:1004F8009C004001450846040319832A842A892A56
:1005080046088A0045080A00823180314620823137
:1005180001304001AE070030AF3D0800F800780810
:10052800F700F70DF70D41011D0877060339770627
:100538009D001D140D30890B9F2A000041019D1458
:100548009D18A72AA82AA42A1C08F6001B08F5004B
:10055800080056304B019F00FF309D00C2309C00C0
:100568001D08F3001C08F2004E018C129616DD30AF
:100578004001B7000330B8008331A723823190309F
:100588004B019E000800803044018F000D30900020
:1005980003309100FF308D00D8308C004E011010D0
:1005A80044010D084001B30044010C084001B200A9
:1005B800353044018E00080044010E1DE42AE52A66
:1005C800F02A0E104001380844018D004001370818
:1005D80044018C000E14F82A4001380844018D00AB
:1005E8004001370844018C0008007C019B010D3054
:1005F8009C000D309D000D309E000D309F00023094
:10060800A000A101A201A30183309A004E0191121A
:100618009B16080088307C01910017309200173033
:1006280093000E3094001B3095000230960097011D
:100638009801903099000330900008007C01A501D2
:100648001A30A6000530A700A801A9010130AA00A8
:100658000830AB00AC01AD018030A40008004401B3
:100668000E1D372B382B3F2B0E1076088D00750882
:100678008C000E14432B76088D0075088C0008003A
:100688007C01AF010E30B000B101B201B3010230FC
:10069800B4000230B500B601B7018030AE000800E2
:1006A8000D30450190008F01910127308D008C019C
:1006B8004E019010B03045018E0008000D30450104
:1006C80090008F01910127308D008C014E01901010
:1006D800B03045018E000800F6007608F500F50DEB
:1006E800F50D41011D087506033975069D001D1499
:1006F8000800603051018D008F0191010630930090
:100708009001920108009030530194000230950046
:10071800033096000530970008004F0196019701B5
:10072800980199019A019B010800F03041019E004F
:100738009B019C0101309D0008006400800101318B
:10074800890BA22B003440013808C6003708C500C1
:100758000800883052018E0002308F0008007308AC
:100768004B019D0072089C000800E8340334623491
:1007780000340134843052018C00080045018E1386
:10078800080045018E17080044010E1008004401B6
:100798000E14080045018E13080045018E17080045
:1007A80044010E10080044010E1408004E01911275
:0407B800080008002D
:020000040001F9
:0A000E00EC3FFF3F9F3FFF3FFF3F25
:00000001FF
