:1000000080312C28220808007E1480314E01961A77
:100010008C1E0E288A312E2280312A280B1F2A2876
:100020009B1A911E17288831562080312A28191AC8
:100030000F1E212842016C088A006B080A008031DB
:100040002A28991A8F1E2A2842016A088A006908FC
:100050000A0080317E10090080312E28F83084009B
:10006000883085006730860000308700083088318E
:100070009A2080311430840089308500E330860076
:10008000003087000A3088319A208031F001F10178
:10009000F201F301F401F501203084000030850005
:1000A0002E30883194208031A030840000308500CB
:1000B0004330883194208031413084000130850004
:1000C0002030883194207E1040018B319C2B2708F2
:1000D000A3002608A2002508A1002408A0004001D2
:1000E0003D084201A60040013C084201A500250848
:1000F0004001CE00420126084001CF00D001D101CD
:10010000D201D301D401D5013D084201A80040012C
:100110003C084201A70027084001D60042012808F8
:100120004001D700D801D901DA01DB01DC01DD0192
:100130008C31FA2480314E084201B10040014F0851
:100140004201B200400150084201B3004001510891
:100150004201B400400152084201B5004001530879
:100160004201B600400154084201B7004001550861
:100170004201B80031084001CE004201320840017E
:10018000CF00420133084001D00042013408400151
:10019000D100420135084001D20042013608400139
:1001A000D300420137084001D40042013808400121
:1001B000D50041016A084201A600410169084201D7
:1001C000A50025084001D600420126084001D700BD
:1001D000D801D901DA01DB01DC01DD018C31FA241F
:1001E00080314E30860000308700403F4201A7003A
:1001F000413FA800423FA900433FAA00443FAB0053
:10020000453FAC00463FAD00473FAE000A304201DB
:10021000AE36AD0CAC0CAB0CAA0CA90CA80CA70C00
:10022000890B072942012A084101A7004201290838
:100230004101A600420128084101A500420127080A
:100240004101A400200824074201A5004101210822
:10025000253D4201A60041012208263D4201A7009A
:1002600041012308273D4201A80028084001D10090
:10027000420127084001D000420126084001CF007A
:10028000420125084001CE006A084201A900AA01E6
:10029000AB01AC012C084001D50042012B08400104
:1002A000D40042012A084001D3004201290840013C
:1002B000D2008B31C82380314E084201AD0040018D
:1002C0004F084201AE00400150084201AF0040011A
:1002D00051084201B000410165084001CE004101D2
:1002E00066084001CF00D001D10141012B08400137
:1002F000D50041012A084001D400410129084001EC
:10030000D300410128084001D2008B31C82380313D
:100310004E084201AD0740014F084201AE3D400189
:1003200050084201AF3D400151084201B03D10303C
:10033000B036AF0CAE0CAD0C890B982930084101DA
:10034000AB0042012F084101AA0042012E084101E1
:10035000A90042012D084101A80067084001DA0008
:10036000410168084001DB00DC01DD0141012B088F
:100370004001E10041012A084001E0004101290853
:100380004001DF00410128084001DE008E3149268E
:1003900080315B08B3005A08B20032086D07B8001C
:1003A00033086E3DB90041012E084001D2004101E1
:1003B0002F084001D300D401D50141012E0840018E
:1003C000CE0041012F084001CF00D001D1018B3177
:1003D000C823803151084201BC004001500842014D
:1003E000BB0040014F084201BA0040014E084201E3
:1003F000B900410167084001DA0041016808400185
:10040000DB00DC01DD0141016B084001D20041014C
:100410006C084001D300D401D50142013C084001E1
:10042000D10042013B084001D00042013A0840019E
:10043000CF00420139084001CE008B31C823803102
:100440004E084201A50040014F084201A6004001AC
:1004500050084201A700400151084201A8000A309B
:10046000A836A70CA60CA50C890B302A2808400139
:10047000E100420127084001E00042012608400156
:10048000DF00420125084001DE008E3149265B086D
:10049000B5005A08B40034083807B6003508393DAD
:1004A000B7000800683400346A3400346C34003417
:1004B0006F340034713400347334003476340034D3
:1004C000783400347B3400347D340034803400349C
:1004D0008334003485340034883400348B34003461
:1004E0008E34003491340034943400349734003422
:1004F0009B3400349E340034A1340034A5340034DD
:10050000A8340034AC340034B0340034B334003494
:10051000B7340034BB340034BF340034C334003447
:10052000C8340034CC340034D0340034D5340034F2
:10053000D9340034DE340034E3340034E834003499
:10054000EC340034F1340034F7340034FC3400343B
:1005500001340134073401340C34013412340134D1
:10056000173401341D340134233401342934013467
:100570002F340134363401343C34013442340134F4
:100580004934013450340134563401345D3401347B
:10059000643401346B3401347234013479340134FD
:1005A0008134013488340134903401349734013477
:1005B0009F340134A7340134AF340134B7340134EB
:1005C000BF340134C7340134D0340134D834013459
:1005D000E0340134E9340134F1340134FA340134C3
:1005E000023402340B340234143402341C34023426
:1005F000253402342E340234373402343F3402348A
:1006000048340234513402345934023462340234EE
:100610006B340234743402347C3402348534023452
:100620008E340234963402349F340234A7340234B8
:10063000B0340234B8340234C0340234C834023422
:10064000D1340234D9340234E0340234E834023490
:10065000F0340234F8340234FF3402340734033403
:100660000E340334153403341D340334243403347A
:100670002A34033431340334383403343E340334FD
:10068000453403344B340334513403345734033486
:100690005D34033463340334683403346E34033418
:1006A00073340334783403347D34033482340334B4
:1006B000873403348C340334903403349534033456
:1006C000993403349D340334A1340334A534033402
:1006D000A9340334AD340334B0340334B4340334B4
:1006E000B7340334BA340334BD340334C034033470
:1006F000C3340334C6340334C8340334CB34033432
:10070000CD340334D0340334D2340334D4340334FA
:10071000D6340334D8340334DA340334DC340334C9
:10072000DE340334E0340334E1340334E33403349B
:10073000E4340334E6340334E734033421308B31BA
:100740000E2383314201A0004B2C420121088D3140
:10075000EC250800420121084001B10008000030EA
:100760008D31EC2519130800420121084001EC00ED
:100770000800420121084001DB00DC01420122089F
:100780004001DD00DE015D08DE00DD015B085D0487
:100790004101EB0040015C085E044101EC000800EF
:1007A000420121084001DB00DC0142012208400136
:1007B000DD00DE015D08DE00DD015B085D04410156
:1007C000E90040015C085E044101EA0008004201C2
:1007D00021084001DB00DC01420122084001DD006C
:1007E000DE015D08DE00DD015B085D044101E7001C
:1007F00040015C085E044101E80008004201210854
:100800004001DB00DC01420122084001DD00DE0185
:100810005D08DE00DD015B085D04E7005C085E0446
:10082000E8000800420121084001EB008B3153230E
:100830000800420121084001EA006A08DB00DC01EF
:10084000DB35DC0DDB09DC09DB0A0319DC0A5B089C
:100850004101E50040015C084101E6000800420159
:1008600021084001B0000800420121084001DB00DE
:10087000DC01420122084001DD00DE015D08DE00EE
:10088000DD015B085D044101E30040015C085E049A
:100890004101E400080020084001DB00DC015C08A5
:1008A000003A0319542CAA2C5B08003A0319A52B13
:1008B000013A0319AA2B033A0319AF2B123A031971
:1008C000B42B013A0319B92B033A0319D02B013A7F
:1008D0000319E72B073A0319FE2B013A0319122CCF
:1008E000033A0319192C013A03192F2C0F3A031953
:1008F000342C383A0319AA2C013A0319AA2C033ACA
:100900000319AA2C013A0319AA2C073A0319AA2C95
:10091000013A0319AA2C033A0319AA2C013A031924
:10092000AA2C0F3A0319AA2C013A0319AA2C033A4C
:100930000319AA2C013A0319AA2C073A0319AA2C65
:10094000013A0319AA2C033A0319AA2C013A0319F4
:10095000AA2CAA2C080040012B03031D862D2A086F
:10096000031D862D0830A800862D8831A0208431F3
:10097000003A031908000F3089313721AB01AB0A67
:10098000A801A80A08008831A0208431003A031980
:10099000080089317C218431013A031DD22C0230B8
:1009A000A800080008304001A80008008831A020F5
:1009B0008431003A031908008B3130238431553AD1
:1009C000031DD22C0330A80008008831A0208431F8
:1009D000003A031908008B31302384314101B800FB
:1009E00038088A3117228431003A0319D22CCE01FB
:1009F000CE0A410138088E31AD2684314101C20052
:100A00004203031D102D02304001CE004101380881
:100A10008E31AD264101C30004304001A80008001A
:100A20008831792006304001A80008008831A020D4
:100A30008431003A031908008B3130238431E200FD
:100A40002708B93E860087016208810041014308FA
:100A50004001E200E301E21BE3030130E40064082B
:100A6000A7076308803A803C031D382D62082702DF
:100A7000031C08004001A7010530A80008008831C8
:100A8000A0208431003A031908008B3130238431CF
:100A90004101C10038084001CE00B930CF0041010A
:100AA00043088C312624843141014106031DD22C98
:100AB00007304001A8000800410138088F31132792
:100AC000843107304001A80042016E088A006D0899
:100AD0000A008531883183208431A701AB010030C1
:100AE000CE00CF000D30D0000030D100B8308931B9
:100AF000EA21843142019E1C822D88317E204001F2
:100B0000A801080009304001A80008002808E200F8
:100B1000E3016308003A03198E2DAE2D6208003AF6
:100B20000319B52C013A0319C32C033A0319D62C27
:100B3000013A0319E52C073A0319162D013A031956
:100B40003F2D033A03195C2D013A0319642D0F3A26
:100B500003196A2D013A03197A2DAE2D08004001C0
:100B60003F084101AD0040013E084101AC000C309E
:100B70008A314622853177084001BF007608BE00E1
:100B80003B3089312A2185310D30890BC52D00007C
:100B9000013040016802A73003196702031CD42DFD
:100BA000A630E7000130E80041012D08400168024D
:100BB000031DDE2D41012C08400167020318F12DB1
:100BC0003F086802031DE62D3E0867020318F12D59
:100BD0002F03031DF12D0230AE0000308D31902522
:100BE00085314101360837040319282E4001410898
:100BF0004101B100400140084101B00002308A319A
:100C00004622853177084001C1007608C0003B309C
:100C100089312A2185310D30890B0C2E00000130DD
:100C20004101310274300319300203180800013009
:100C300040014102743003194002031808002F03D9
:100C4000031D0800AD01AD0A00308D31902508006C
:100C500075084001A1007408A00014308A314622B2
:100C600085317708F5007608F4003B3089312A2178
:100C700085310030400121020A3003192002031897
:100C80004E2E003075020A300319740203184E2EDE
:100C90000230AC0000308D31902508000330210275
:100CA000F63003192002031C080003307502F630E9
:100CB00003197402031C08000330AC0000308D31AE
:100CC000902508004E01101C712E40012F03031DBA
:100CD000712E0330AE0000308D31EC2586314E018F
:100CE0001010410164083702031D782E6308360294
:100CF000031C0800B601B7017C018F1D8E2E400138
:100D00002F03031D8E2E7C01AB0145018C017C015C
:100D1000A5010330A500A5010830AB008D314125A8
:100D200086314F08EE004E08ED006E08803A420111
:100D3000BD0080303D02031DA02E733040016D02C6
:100D4000031CAA2E73304001ED000030EE00AC0110
:100D5000AC0AE82E40013B083F02031DB12E3A08C1
:100D60003E02031CC12E00303B020A3003193A0236
:100D70000318C12E3A083E02BC003B083F3BBD00B1
:100D8000C52E3F08BD003E08BC003D084201BE0024
:100D900040013C084201BD00BE36BD0C3D0841018A
:100DA000AE0042013E084101AF008031672086312C
:100DB0003708803A4201BD0080303D02031DE32E1A
:100DC00040016C083602031CEC2E4001AE01AE0A55
:100DD00000308D31EC2586318F31892708000034B1
:100DE000013401344D3400340134013401344C34C5
:100DF00000340234013401344B34003410340134F3
:100E000001344A340034113401340234E134003402
:100E1000123401340234DF34003413340134023428
:100E2000DD340034143401340234DB34003415343E
:100E30000134013449340034163401340134483467
:100E40000034173401340134473400341834013489
:100E50000234D934003420340034013446340034B0
:100E60002134003401344534003422340034013458
:100E70004434003423340034013443340034243403
:100E80000034013442340034253400340234D73481
:100E90000034263400340234D5340034273400348E
:100EA0000234D3340034283400340234D1340034D2
:100EB000293400340234CF3400342A34003402346C
:100EC000CD3400342B3400340234CB3400342C3491
:100ED00000340234C93400342D3400340234C734B1
:100EE00000342E3400340234C53400342F3400343E
:100EF000083459340134CF004F08D000D01C822F61
:100F00000130832F0030CE00501C882F0130892FF4
:100F100000304E0603198F2F40015017912F4001CA
:100F20005013501D952F0130962F0030CE00501FCA
:100F30009B2F01309C2F00304E060319A22F400139
:100F40005017A42F40015013501EA82F0130A92F75
:100F50000030CE00501FAE2F0130AF2F00304E06B4
:100F60000319B52F40015017B72F40015013D01D62
:100F7000BB2F0130BC2F0030CE00D01CC12F013060
:100F8000C22F00304E060319C82F4001D017CA2FB8
:100F90004001D013501ECE2F0130CF2F0030CE0095
:100FA000D01FD42F0130D52F00304E060319DB2F70
:100FB0004001D017DD2F4001D013D01EE12F0130AA
:100FC000E22F0030CE00D01FE72F0130E82F003095
:100FD0004E060319EE2F4001D017F02F4001D01319
:100FE0000310D01F0314031CF82F4001D017FA2F51
:100FF0004001D01350080800843052018C000800D2
:1010A80008000800911208008E1708008E17080023
:1010B8008931D42108001D121D16080044010E14A0
:1010C800080044010E10080045018E130800440171
:1010D8000E14080044010E10080045018E13080084
:1010E80000004001A901AA01080042011D124E0199
:1010F8009912080042011D164E01991608000000B9
:101108004001A901AA01080071084B019D0070085F
:101118009C000800883052018E0002308F000800C1
:10112800640080010131890B95280034FE0012000B
:101138001E00FE0B9B280034400123080319A62833
:1011480001300800003008004F084B019D004001A5
:101158004E084B019C000800F03041019E009B01A5
:101168009C0101309D0008004F084201E400400145
:101178004E084201E30008004F084201E800400120
:101188004E084201E70008004F084201E60040010E
:101198004E084201E50008004F084201EA004001FC
:1011A8004E084201E90008004F084201EC004001E6
:1011B8004E084201EB0008004F084201E2004001DE
:1011C8004E084201E10008001E304001CE000930FF
:1011D800CF008831E02008004F019601970198015F
:1011E80099019A019B010800A13401340A34693439
:1011F8000334AF3455340034903053019400023036
:1012080095000330960005309700080060305101C2
:101218008D008F0191010630930090019201080022
:10122800E83403342E34FF349E340234C134053498
:10123800133403340130F60076084001A907690821
:101248002902031C0800883174200800F700770879
:10125800F600F60DF60D41011D08760603397606EF
:101268009D001D140800D0005008E9000030CE0091
:10127800CF008831A82000004001AA01AA0A08006E
:10128800EF304001D0008630D1009E30D2000330CC
:10129800D3001C308A31912208000D30450190009E
:1012A8008F01910127308D008C014E019010B030D4
:1012B80045018E0008000D30450190008F01910115
:1012C80027308D008C014E019010B03045018E0002
:1012D800080044010E1D77290E1077088D00760846
:1012E8008C000E14080077088D0076088C00080022
:1012F8008B3130238931003A031D8929803102203E
:101308008931891C89290130080000300800AF01A3
:101318000E30B000B101B201B3010230B4000230A6
:10132800B500B601B7018030AE0008007C01A50108
:101338001A30A6000530A700A801A9010130AA00AB
:101348000830AB00AC01AD018030A4000800883043
:101358007C01910017309200173093000E309400F2
:101368001B30950002309600970198019030990043
:101378000330900008007C019B010D309C000D306B
:101388009D000D309E000D309F000230A000A1018D
:10139800A201A30183309A004E0191129B16080006
:1013A8007308493E86000130870042011908810010
:1013B8000130F6007608F307083073020318F301CA
:1013C8000130F60076084001A3070800D40054084D
:1013D800D3000130D0020030D13B500A0319510A22
:1013E800031908005308860087014E088100013060
:1013F800D2005208D307ED2944010E1D0E2A0E1003
:1014080040014F0844018D0040014E0844018C0002
:101418000E14080040014F0844018D0040014E0899
:1014280044018C0008004001D500CE01CE0A5508C1
:101438008E31AD268A31023A031D242A0030080075
:1014480055083F3987317B278A315506031D222AE3
:10145800013008008C1271084B019D0070089C0037
:1014680042016108620403193E2A62088A00610881
:101478000A008A318531AF2501304101B6070030B5
:10148800B73D0800F9007908F800F80DF80D41019A
:101498001D087806033978069D001D140D30890B48
:1014A800532A000041019D149D18582A1C08F70072
:1014B8001B08F600080056304B019F00FF309D00C6
:1014C80083309C001D08F1001C08F0004E018C12AE
:1014D800961655304001CE000830CF008831E02004
:1014E80090304B019E000800803044018F000D3081
:1014F800900003309100FF308D00D8308C004E01F1
:10150800101044010D084101B50044010C084101C7
:10151800B400353044018E000800D4005108410160
:10152800EE00400150084101ED0040015408EF0071
:1015380053084201EE00400152084201ED00883193
:1015480083208A3188317E208A318831E82008005A
:101558000830400124020318C72A2508513E860096
:1015680001308700010842019A000130F600760830
:101578004001A507083025020318A5010130F6002F
:101588007608A40708004E0119120800CF002408A5
:101598000319CB2A4E01191AD62A40014F084201D5
:1015A8009A00E92A191240012608513E86000130A6
:1015B80087004F0881000130CE004E08A60708308A
:1015C80026020318A6010130A4024E0119160800CC
:1015D8004001D900DA0159085A020318032B5A08A6
:1015E8005707D80058088600870101088A31CA229F
:1015F8008A3101304001D8005808DA07EF2A560826
:10160800CE005708CF0059088C3126248A318A31F8
:10161800CA2208004001D900410138083F39400179
:10162800DA005908CE000130CF00B930D0000030C0
:10163800D1000830D2000030D3008B3176238B31B3
:101648000030CE00CF000D30D0000030D100B830CF
:101658008931EA215A08080023080319302B720837
:10166800413E8600013087000108A2007208493E09
:101678008600013087000108CF000130CE004E08F7
:10168800F207083072020318F2014E019912013074
:101698004001A3024E01991640014F08080000308E
:1016A8008D31EC258B31530194177C0197154E0130
:1016B8008E1052010F0840016B06E0396B0652018B
:1016C8008F003530890B662B0000883188204E0149
:1016D8008C1291120E108E104101B601B701400113
:1016E800B10108005108D8005008D7004F08D600AB
:1016F8004E08D5000130D2020030D33B520A0319FC
:10170800530A03190800570886005808870001087B
:10171800D4000130D7070030D83D55088600560858
:101728008700540881000130D5070030D63D7E2B54
:101738008C3156248B318B3153238B311917293037
:101748004201C0009630BF007F30890BA92BBF0B28
:10175800A92BC00BA92B8B170B1705304201C00012
:101768000F30BF00F130890BB72BBF0BB72BC00B65
:10177800B72B01308D31EC258B318431AB248B3183
:10178800863162268B31C12B0030D9000030D80059
:101798000030D7000030D6004E1CDA2B5208D6078E
:1017A8005308D73D5408D83D5508D93D0130D235A6
:1017B800D30DD40DD50D890BDB2B0130D136D00CD0
:1017C800CF0CCE0C890BE22B510850044F044E0469
:1017D800031DD02B5908D1005808D0005708CF0056
:1017E8005608CE0008004001980199019A01373047
:1017F800920030309300BF3094001F307E01CE003D
:101808001030C3000730B800C401B901CF01BA01D4
:10181800C501D0011F30BB00C6013F30D1003F30A9
:10182800BC00C7013F30D20017307D01BB000F302C
:101838007E019F000230A6000130A7000D307D0117
:10184800CB0008004001D2004E08D000D10150085A
:10185800D4005108D500D301520853020318522C62
:101868004F088600870101085407D400550803185B
:10187800550AD5000130D0005008CF070130550275
:10188800003003195402031C4D2CFF30D4020030E1
:10189800D53B0130D0005008D307302CD409D509E6
:1018A800540808008831F0208C318B31F7238C31B3
:1018B80089310A218C31893100218C318731FC270B
:1018C8008C318931BF218C3189315F218C318A314A
:1018D8005F228C318931AB218C3189318B218C315C
:1018E8008831B0208C3189319A218C3188318E2011
:1018F8008C318A3178228C318C31B9248C31893100
:10190800442108007308413E8600013087008101A8
:101918001D1D992C7308413E8600013087008114F3
:1019280068088A0067080A008C3142019D1CA72CB0
:101938007308413E860001308700011566088A0059
:1019480065080A008C317308413E86000130870023
:1019580001080319B62C420164088A0063080A00CA
:101968008C3108008931D42108004E019912863043
:101978004001CE000C30CF008831D0208C314E0190
:101988001912AC304001CE000A30CF008831D8207F
:101998008C3108309F0090309D0024309E00A0308C
:1019A8009B0001309C0054304001CE000830CF002D
:1019B8008831C0208C315F304001CE000830CF0024
:1019C8008831C8208C315C304001CE000830CF000F
:1019D8008831B8204001A201A601A5010830A40061
:1019E800F301F201A3014E01991608005F30860049
:1019F800003087000830DE0000301E00DE0B012DAD
:101A08004E1C162D5608DF075708E03D5808E13DE3
:101A18005908E23D5A08E33D5B08E43D5C08E53DB2
:101A28005D08E63DD635D70DD80DD90DDA0DDB0D9D
:101A3800DC0DDD0DD536D40CD30CD20CD10CD00C6A
:101A4800CF0CCE0C4E084F045004510452045304DA
:101A580054045504031D042D5F08CE006008CF0010
:101A68006108D0006208D1006308D2006408D3007E
:101A78006508D4006608D50008004001D401D501E6
:101A8800D701D8012108D5002008D4007508210203
:101A9800031D502D740820020318562D7508D50013
:101AA8007408D4007D30D7000030D800D60158081B
:101AB800803AD0007F305002031D642DD930570280
:101AC800031C7F2D40015608D000D101D035D10D1F
:101AD8005230500784000230513D80388500003F65
:101AE800D200013FD30055085302031D7D2D540831
:101AF8005202031C852D40015808CF005708CE001C
:101B080008005708FF3ED700FF30583DD800013085
:101B1800D0005008D6075B2DFA00883168208D3137
:101B28007C01911119129913803044018F000D30F6
:101B380090007C01A41391149110003200320032FD
:101B480000327C019B149B104001AF017A080319F5
:101B58000800AE01AD01AC0194177C0190179111FA
:101B680011111115111191179B111B111B151B1127
:101B780040013103031DD12D7C01911519169917C8
:101B8800C03044018F000B309000893151218D31D4
:101B9800883158208D317C01A417883165208D311A
:101BA80040013008F800F9017809F6007909F700D2
:101BB80089316D218D314E0110108831622040012C
:101BC8003F08BB003E08BA00AF01AF0A94130800F3
:101BD8004001D200883171208D317C019111191298
:101BE8009913803044018F000D3090007C01A413BC
:101BF8009114911000320032003200327C019B14A3
:101C08009B104001AF01520803190800AE01AD0155
:101C1800AC0194177C019017911111111115111134
:101C280091179B111B111B151B1140013103031D3B
:101C38002E2E7C01911519169917C03044018F007A
:101C48000B30900089315F218D3188315A208D31D8
:101C58007C01A41788316E208D3140013008D000F6
:101C6800D1015009CE005109CF008A3100228D31AF
:101C78004E01101088316B2040013F08BB003E0820
:101C8800BA00AF01AF0A9413080000304201A30064
:101C98000030A2000030A1000030A00040015D0823
:101CA8005C045B045A0403199C2E4201A401A40A93
:101CB8004001DD1B6C2E0130DA35DB0DDC0DDD0D4E
:101CC800890B602E0130E20062084201A4075C2EF5
:101CD80001304201A035A10DA20DA30D890B6D2E77
:101CE80040015D086102031D832E5C086002031D2C
:101CF800832E5B085F02031D832E5A085E02031CB5
:101D08008F2E5A08DE025B08DF3B5C08E03B5D086B
:101D1800E13B4201201401304001DD36DC0CDB0CD4
:101D2800DA0C890B902E01304201A402031D6C2E9F
:101D3800420123084001DD00420122084001DC0085
:101D4800420121084001DB00420120084001DA007D
:101D580008004001D10041016E084001D400410152
:101D68006D084001D3003F30CF004F08D105D201A4
:101D78006F0852020318FF2E530884005408850088
:101D8800000851060319FF2E0530D3070030D43D53
:101D98006F08FF3ECF00FF3003180030D000520814
:101DA8004F065004031DDA2E023008000130CF0020
:101DB8004F08D207BC2E5308840054088500000839
:101DC80008005408D0005308CF0001304F078400A2
:101DD80050080318500A8500000808005408D0006D
:101DE8005308CF0002304F07840050080318500AE8
:101DF8008500000808004E08CF00D0015008003ABE
:101E08000319072FD82E4F08003A0319DF2E013A7D
:101E18000319E52E033A0319F22ED82E08004001C3
:101E2800DE0041016E084001E10041016D084001FA
:101E3800E0003F30DB005B08DE05DF016F085F0272
:101E48000318372F600884006108850000085E06C3
:101E58000319372F0530E0070030E13D0130DB0082
:101E68005B08DF07222F6108DC006008DB00013017
:101E78005B0784005C0803185C0A850000084101C0
:101E8800C20040016108DC006008DB0002305B072B
:101E980084005C0803185C0A850000084101C3003F
:101EA800B9304001CE000030CF006108DC00600886
:101EB800DB0003305B0784005C0803185C0A8500BC
:101EC800003FD000013FD100410143084001D2004A
:101ED800D301D21BD3038B3176238F3141013808CC
:101EE8004001CE00B930CF00410143088C3126248F
:101EF8008F314101C10038084001D600B930D70000
:101F0800410143088A31EC22080040012F08C6002D
:101F18003108C5002E08C4002D08C3002C08C200D3
:101F280040084101D700400141084101D800400163
:101F38003E084101D50040013F084101D600740820
:101F4800D3007508D40040013C084101D10040018C
:101F58003D084101D20040013A084101CF0040014B
:101F68003B084101D00040016D084101CD0040010E
:101F78006E084101CE00400138084101CB00400104
:101F880039084101CC00400136084101C90040012F
:101F980037084101CA00400134084101C700400127
:101FA80035084101C800400132084101C50040011F
:101FB80033084101C60040013C084201D9004001F4
:101FC8003D084201DA0040016D084201DB00400192
:101FD8006E084201DC00400138084201DD00400182
:101FE80039084201DE00400136084201DF004001A5
:081FF80037084201E000080077
:020000040001F9
:08000000FF3FFF3FFF3FFF3F00
:0A000E00EC3FFF3F9F3FFF3FFF3F25
:00000001FF
